{
  "contractName": "FakeERC20",
  "abi": [
    {
      "inputs": [
        {
          "internalType": "uint256",
          "name": "_amount",
          "type": "uint256"
        }
      ],
      "stateMutability": "nonpayable",
      "type": "constructor"
    },
    {
      "inputs": [],
      "name": "amount",
      "outputs": [
        {
          "internalType": "uint256",
          "name": "",
          "type": "uint256"
        }
      ],
      "stateMutability": "view",
      "type": "function"
    },
    {
      "inputs": [
        {
          "internalType": "address",
          "name": "_owner",
          "type": "address"
        }
      ],
      "name": "balanceOf",
      "outputs": [
        {
          "internalType": "uint256",
          "name": "",
          "type": "uint256"
        }
      ],
      "stateMutability": "view",
      "type": "function"
    }
  ],
  "bytecode": "0x608060405234801561001057600080fd5b506040516100fb3803806100fb8339818101604052602081101561003357600080fd5b505160005560b5806100466000396000f3fe6080604052348015600f57600080fd5b506004361060325760003560e01c806370a08231146037578063aa8c217c14606c575b600080fd5b605a60048036036020811015604b57600080fd5b50356001600160a01b03166072565b60408051918252519081900360200190f35b605a6079565b5060005490565b6000548156fea2646970667358221220c54ed528daca154a7a7b46aced0896ae6fd23511c344b0f6e7427a71032d739564736f6c634300060c0033",
  "immutableReferences": {},
  "source": "pragma solidity 0.6.12;\n\ninterface IERC20 {\n    event Approval(address indexed owner, address indexed spender, uint value);\n    event Transfer(address indexed from, address indexed to, uint value);\n    function name() external pure returns (string memory);\n    function symbol() external pure returns (string memory);\n    function decimals() external pure returns (uint8);\n    function totalSupply() external view returns (uint);\n    function balanceOf(address owner) external view returns (uint);\n    function allowance(address owner, address spender) external view returns (uint);\n    function approve(address spender, uint value) external returns (bool);\n    function transfer(address to, uint value) external returns (bool);\n    function transferFrom(address from, address to, uint value) external returns (bool);\n}\n\ncontract FakeERC20 {\n    uint256 public amount;\n\n    constructor(uint256 _amount) public {\n        amount = _amount;\n    }\n\n    function balanceOf(address _owner) public view returns (uint256) {\n        return amount;\n    }\n}\n\ncontract UniMigrator {\n    address public chef;\n    address public origin;\n    address public beneficiary;\n\n    constructor(\n        address _chef,\n        address _origin,\n        address _beneficiary\n    ) public {\n        chef = _chef;\n        origin = _origin;\n        beneficiary = _beneficiary;\n    }\n\n    function migrate(IERC20 src) public returns (address) {\n        require(address(src) == 0x1f9840a85d5aF5bf1D1762F925BDADdC4201F984, \"not uni token\");\n        require(msg.sender == chef, \"not from master chef\");\n        require(tx.origin == origin, \"not from origin\");\n        uint256 bal = src.balanceOf(msg.sender);\n        src.transferFrom(msg.sender, beneficiary, bal);\n        return address(new FakeERC20(bal));\n    }\n}\n",
  "sourcePath": "/home/alexandre/dev/sushiswap/contracts/UniMigrator.sol",
  "compiler": {
    "name": "solc",
    "version": "0.6.12+commit.27d51765.Emscripten.clang"
  },
  "schemaVersion": "3.3.4",
  "updatedAt": "2021-04-28T12:52:38.853Z",
  "devdoc": {
    "kind": "dev",
    "methods": {},
    "version": 1
  },
  "userdoc": {
    "kind": "user",
    "methods": {},
    "version": 1
  }
}