{
  "contractName": "MasterChef",
  "abi": [
    {
      "inputs": [
        {
          "internalType": "contract SushiToken",
          "name": "_sushi",
          "type": "address"
        },
        {
          "internalType": "address",
          "name": "_devaddr",
          "type": "address"
        },
        {
          "internalType": "uint256",
          "name": "_sushiPerBlock",
          "type": "uint256"
        },
        {
          "internalType": "uint256",
          "name": "_sushiPerSecond",
          "type": "uint256"
        },
        {
          "internalType": "uint256",
          "name": "_startBlock",
          "type": "uint256"
        },
        {
          "internalType": "uint256",
          "name": "_bonusEndBlock",
          "type": "uint256"
        },
        {
          "internalType": "uint256",
          "name": "_currentBlocktime",
          "type": "uint256"
        },
        {
          "internalType": "uint256",
          "name": "_lastBlocktime",
          "type": "uint256"
        }
      ],
      "stateMutability": "nonpayable",
      "type": "constructor"
    },
    {
      "anonymous": false,
      "inputs": [
        {
          "indexed": true,
          "internalType": "address",
          "name": "user",
          "type": "address"
        },
        {
          "indexed": true,
          "internalType": "uint256",
          "name": "pid",
          "type": "uint256"
        },
        {
          "indexed": false,
          "internalType": "uint256",
          "name": "amount",
          "type": "uint256"
        }
      ],
      "name": "Deposit",
      "type": "event"
    },
    {
      "anonymous": false,
      "inputs": [
        {
          "indexed": true,
          "internalType": "address",
          "name": "user",
          "type": "address"
        },
        {
          "indexed": true,
          "internalType": "uint256",
          "name": "pid",
          "type": "uint256"
        },
        {
          "indexed": false,
          "internalType": "uint256",
          "name": "amount",
          "type": "uint256"
        }
      ],
      "name": "EmergencyWithdraw",
      "type": "event"
    },
    {
      "anonymous": false,
      "inputs": [
        {
          "indexed": true,
          "internalType": "address",
          "name": "previousOwner",
          "type": "address"
        },
        {
          "indexed": true,
          "internalType": "address",
          "name": "newOwner",
          "type": "address"
        }
      ],
      "name": "OwnershipTransferred",
      "type": "event"
    },
    {
      "anonymous": false,
      "inputs": [
        {
          "indexed": false,
          "internalType": "uint256",
          "name": "sushiPerBlock",
          "type": "uint256"
        },
        {
          "indexed": false,
          "internalType": "uint256",
          "name": "Blocktime",
          "type": "uint256"
        }
      ],
      "name": "RewardChange",
      "type": "event"
    },
    {
      "anonymous": false,
      "inputs": [
        {
          "indexed": true,
          "internalType": "address",
          "name": "user",
          "type": "address"
        },
        {
          "indexed": true,
          "internalType": "uint256",
          "name": "pid",
          "type": "uint256"
        },
        {
          "indexed": false,
          "internalType": "uint256",
          "name": "amount",
          "type": "uint256"
        }
      ],
      "name": "Withdraw",
      "type": "event"
    },
    {
      "inputs": [],
      "name": "BONUS_MULTIPLIER",
      "outputs": [
        {
          "internalType": "uint256",
          "name": "",
          "type": "uint256"
        }
      ],
      "stateMutability": "view",
      "type": "function",
      "constant": true
    },
    {
      "inputs": [],
      "name": "bonusEndBlock",
      "outputs": [
        {
          "internalType": "uint256",
          "name": "",
          "type": "uint256"
        }
      ],
      "stateMutability": "view",
      "type": "function",
      "constant": true
    },
    {
      "inputs": [],
      "name": "claimOwnership",
      "outputs": [],
      "stateMutability": "nonpayable",
      "type": "function"
    },
    {
      "inputs": [],
      "name": "currentBlocktime",
      "outputs": [
        {
          "internalType": "uint256",
          "name": "",
          "type": "uint256"
        }
      ],
      "stateMutability": "view",
      "type": "function",
      "constant": true
    },
    {
      "inputs": [],
      "name": "devaddr",
      "outputs": [
        {
          "internalType": "address",
          "name": "",
          "type": "address"
        }
      ],
      "stateMutability": "view",
      "type": "function",
      "constant": true
    },
    {
      "inputs": [
        {
          "internalType": "address",
          "name": "",
          "type": "address"
        }
      ],
      "name": "isUserRegisty",
      "outputs": [
        {
          "internalType": "bool",
          "name": "",
          "type": "bool"
        }
      ],
      "stateMutability": "view",
      "type": "function",
      "constant": true
    },
    {
      "inputs": [],
      "name": "lastBlocktime",
      "outputs": [
        {
          "internalType": "uint256",
          "name": "",
          "type": "uint256"
        }
      ],
      "stateMutability": "view",
      "type": "function",
      "constant": true
    },
    {
      "inputs": [],
      "name": "owner",
      "outputs": [
        {
          "internalType": "address",
          "name": "",
          "type": "address"
        }
      ],
      "stateMutability": "view",
      "type": "function",
      "constant": true
    },
    {
      "inputs": [],
      "name": "pendingOwner",
      "outputs": [
        {
          "internalType": "address",
          "name": "",
          "type": "address"
        }
      ],
      "stateMutability": "view",
      "type": "function",
      "constant": true
    },
    {
      "inputs": [
        {
          "internalType": "uint256",
          "name": "",
          "type": "uint256"
        }
      ],
      "name": "poolInfo",
      "outputs": [
        {
          "internalType": "contract IERC20",
          "name": "lpToken",
          "type": "address"
        },
        {
          "internalType": "uint256",
          "name": "allocPoint",
          "type": "uint256"
        },
        {
          "internalType": "uint256",
          "name": "lastRewardBlock",
          "type": "uint256"
        },
        {
          "internalType": "uint256",
          "name": "accSushiPerShare",
          "type": "uint256"
        }
      ],
      "stateMutability": "view",
      "type": "function",
      "constant": true
    },
    {
      "inputs": [],
      "name": "rewardCollector",
      "outputs": [
        {
          "internalType": "address",
          "name": "",
          "type": "address"
        }
      ],
      "stateMutability": "view",
      "type": "function",
      "constant": true
    },
    {
      "inputs": [],
      "name": "startBlock",
      "outputs": [
        {
          "internalType": "uint256",
          "name": "",
          "type": "uint256"
        }
      ],
      "stateMutability": "view",
      "type": "function",
      "constant": true
    },
    {
      "inputs": [],
      "name": "sushi",
      "outputs": [
        {
          "internalType": "contract SushiToken",
          "name": "",
          "type": "address"
        }
      ],
      "stateMutability": "view",
      "type": "function",
      "constant": true
    },
    {
      "inputs": [],
      "name": "sushiPerBlock",
      "outputs": [
        {
          "internalType": "uint256",
          "name": "",
          "type": "uint256"
        }
      ],
      "stateMutability": "view",
      "type": "function",
      "constant": true
    },
    {
      "inputs": [],
      "name": "sushiPerSecond",
      "outputs": [
        {
          "internalType": "uint256",
          "name": "",
          "type": "uint256"
        }
      ],
      "stateMutability": "view",
      "type": "function",
      "constant": true
    },
    {
      "inputs": [],
      "name": "totalAllocPoint",
      "outputs": [
        {
          "internalType": "uint256",
          "name": "",
          "type": "uint256"
        }
      ],
      "stateMutability": "view",
      "type": "function",
      "constant": true
    },
    {
      "inputs": [
        {
          "internalType": "address",
          "name": "newOwner",
          "type": "address"
        },
        {
          "internalType": "bool",
          "name": "direct",
          "type": "bool"
        },
        {
          "internalType": "bool",
          "name": "renounce",
          "type": "bool"
        }
      ],
      "name": "transferOwnership",
      "outputs": [],
      "stateMutability": "nonpayable",
      "type": "function"
    },
    {
      "inputs": [
        {
          "internalType": "uint256",
          "name": "",
          "type": "uint256"
        },
        {
          "internalType": "address",
          "name": "",
          "type": "address"
        }
      ],
      "name": "userInfo",
      "outputs": [
        {
          "internalType": "uint256",
          "name": "amount",
          "type": "uint256"
        },
        {
          "internalType": "uint256",
          "name": "rewardDebt",
          "type": "uint256"
        }
      ],
      "stateMutability": "view",
      "type": "function",
      "constant": true
    },
    {
      "inputs": [
        {
          "internalType": "uint256",
          "name": "",
          "type": "uint256"
        }
      ],
      "name": "userRegistry",
      "outputs": [
        {
          "internalType": "address",
          "name": "",
          "type": "address"
        }
      ],
      "stateMutability": "view",
      "type": "function",
      "constant": true
    },
    {
      "inputs": [],
      "name": "poolLength",
      "outputs": [
        {
          "internalType": "uint256",
          "name": "",
          "type": "uint256"
        }
      ],
      "stateMutability": "view",
      "type": "function",
      "constant": true
    },
    {
      "inputs": [],
      "name": "updateBlockIssuanceWithBlocktime",
      "outputs": [],
      "stateMutability": "nonpayable",
      "type": "function"
    },
    {
      "inputs": [
        {
          "internalType": "uint256",
          "name": "_currentBlocktime",
          "type": "uint256"
        }
      ],
      "name": "changeBlocktime",
      "outputs": [],
      "stateMutability": "nonpayable",
      "type": "function"
    },
    {
      "inputs": [
        {
          "internalType": "uint256",
          "name": "_allocPoint",
          "type": "uint256"
        },
        {
          "internalType": "contract IERC20",
          "name": "_lpToken",
          "type": "address"
        },
        {
          "internalType": "bool",
          "name": "_withUpdate",
          "type": "bool"
        }
      ],
      "name": "add",
      "outputs": [],
      "stateMutability": "nonpayable",
      "type": "function"
    },
    {
      "inputs": [
        {
          "internalType": "uint256",
          "name": "_pid",
          "type": "uint256"
        },
        {
          "internalType": "uint256",
          "name": "_allocPoint",
          "type": "uint256"
        },
        {
          "internalType": "bool",
          "name": "_withUpdate",
          "type": "bool"
        }
      ],
      "name": "set",
      "outputs": [],
      "stateMutability": "nonpayable",
      "type": "function"
    },
    {
      "inputs": [
        {
          "internalType": "uint256",
          "name": "_from",
          "type": "uint256"
        },
        {
          "internalType": "uint256",
          "name": "_to",
          "type": "uint256"
        }
      ],
      "name": "getMultiplier",
      "outputs": [
        {
          "internalType": "uint256",
          "name": "",
          "type": "uint256"
        }
      ],
      "stateMutability": "view",
      "type": "function",
      "constant": true
    },
    {
      "inputs": [
        {
          "internalType": "uint256",
          "name": "_pid",
          "type": "uint256"
        },
        {
          "internalType": "address",
          "name": "_user",
          "type": "address"
        }
      ],
      "name": "pendingSushi",
      "outputs": [
        {
          "internalType": "uint256",
          "name": "",
          "type": "uint256"
        }
      ],
      "stateMutability": "view",
      "type": "function",
      "constant": true
    },
    {
      "inputs": [
        {
          "internalType": "uint256",
          "name": "_pid",
          "type": "uint256"
        },
        {
          "internalType": "address",
          "name": "_user",
          "type": "address"
        }
      ],
      "name": "amountStaked",
      "outputs": [
        {
          "internalType": "uint256",
          "name": "",
          "type": "uint256"
        }
      ],
      "stateMutability": "view",
      "type": "function",
      "constant": true
    },
    {
      "inputs": [],
      "name": "massUpdatePools",
      "outputs": [],
      "stateMutability": "nonpayable",
      "type": "function"
    },
    {
      "inputs": [
        {
          "internalType": "uint256",
          "name": "_pid",
          "type": "uint256"
        }
      ],
      "name": "updatePool",
      "outputs": [],
      "stateMutability": "nonpayable",
      "type": "function"
    },
    {
      "inputs": [
        {
          "internalType": "uint256",
          "name": "_pid",
          "type": "uint256"
        },
        {
          "internalType": "uint256",
          "name": "_amount",
          "type": "uint256"
        }
      ],
      "name": "deposit",
      "outputs": [],
      "stateMutability": "nonpayable",
      "type": "function"
    },
    {
      "inputs": [
        {
          "internalType": "uint256",
          "name": "_pid",
          "type": "uint256"
        },
        {
          "internalType": "uint256",
          "name": "_amount",
          "type": "uint256"
        }
      ],
      "name": "withdraw",
      "outputs": [],
      "stateMutability": "nonpayable",
      "type": "function"
    },
    {
      "inputs": [
        {
          "internalType": "uint256",
          "name": "_pid",
          "type": "uint256"
        },
        {
          "internalType": "address",
          "name": "_user",
          "type": "address"
        }
      ],
      "name": "extWithdraw",
      "outputs": [],
      "stateMutability": "nonpayable",
      "type": "function"
    },
    {
      "inputs": [],
      "name": "getUserBase",
      "outputs": [
        {
          "internalType": "address[]",
          "name": "",
          "type": "address[]"
        }
      ],
      "stateMutability": "view",
      "type": "function",
      "constant": true
    },
    {
      "inputs": [
        {
          "internalType": "uint256",
          "name": "_pid",
          "type": "uint256"
        }
      ],
      "name": "emergencyWithdraw",
      "outputs": [],
      "stateMutability": "nonpayable",
      "type": "function"
    },
    {
      "inputs": [
        {
          "internalType": "address",
          "name": "_devaddr",
          "type": "address"
        }
      ],
      "name": "dev",
      "outputs": [],
      "stateMutability": "nonpayable",
      "type": "function"
    },
    {
      "inputs": [
        {
          "internalType": "address",
          "name": "_collectoraddr",
          "type": "address"
        }
      ],
      "name": "collector",
      "outputs": [],
      "stateMutability": "nonpayable",
      "type": "function"
    }
  ],
  "bytecode": "0x60806040526000600c5534801561001557600080fd5b50604051612049380380612049833981810160405261010081101561003957600080fd5b50805160208201516040808401516060850151608086015160a087015160c088015160e090980151600080546001600160a01b03191633908117825596519899979895979496939592949391927f8be0079c531659141344cd1fd0a4f28419497f9722a3daafe3b4186f6b6457e0908290a3600280546001600160a01b03998a166001600160a01b0319918216179091556003805498909916978116881790985560048054909816909617909655600693909355600791909155600591909155600d55600f91909155600e55611f35806101146000396000f3fe608060405234801561001057600080fd5b506004361061021c5760003560e01c8063630b5ba111610125578063a1066bd4116100ad578063bddaef9c1161007c578063bddaef9c146105d2578063d49e77cd146105ef578063d5688d83146105f7578063e2bbb15814610614578063e30c3978146106375761021c565b8063a1066bd414610570578063ab1bbd481461059c578063afffd5b7146105c2578063b0bcf42a146105ca5761021c565b80638d88a90e116100f45780638d88a90e146104d25780638da5cb5b146104f85780638dbb1e3a1461050057806393f1a40b14610523578063a06e408b146105685761021c565b8063630b5ba11461048f57806364482f79146104975780636b61a19f146104c25780638aa28550146104ca5761021c565b8063441a3e70116101a857806351eb05a61161017757806351eb05a6146103ed5780635312ea8e1461040a5780635cce7b351461042757806361cf753b1461042f578063624c83c7146104375761021c565b8063441a3e701461038e57806348cd4cb1146103b15780634e71e0c8146103b95780634e9ad15a146103c15761021c565b806317caf6f1116101ef57806317caf6f1146102e4578063195426ec146102ec5780631aed6553146103185780631eaaa045146103205780632e7a3f1e146103545761021c565b8063078dfbe714610221578063081e3eda146102595780630a087903146102735780631526fe2714610297575b600080fd5b6102576004803603606081101561023757600080fd5b506001600160a01b0381351690602081013515159060400135151561063f565b005b610261610769565b60408051918252519081900360200190f35b61027b61076f565b604080516001600160a01b039092168252519081900360200190f35b6102b4600480360360208110156102ad57600080fd5b503561077e565b604080516001600160a01b0390951685526020850193909352838301919091526060830152519081900360800190f35b6102616107bf565b6102616004803603604081101561030257600080fd5b50803590602001356001600160a01b03166107c5565b61026161093b565b6102576004803603606081101561033657600080fd5b508035906001600160a01b0360208201351690604001351515610941565b61037a6004803603602081101561036a57600080fd5b50356001600160a01b0316610ab1565b604080519115158252519081900360200190f35b610257600480360360408110156103a457600080fd5b5080359060200135610ac6565b610261610c0d565b610257610c13565b610257600480360360408110156103d757600080fd5b50803590602001356001600160a01b0316610cd5565b6102576004803603602081101561040357600080fd5b5035610e47565b6102576004803603602081101561042057600080fd5b5035611068565b610257611103565b6102616111fa565b61043f611200565b60408051602080825283518183015283519192839290830191858101910280838360005b8381101561047b578181015183820152602001610463565b505050509050019250505060405180910390f35b61025761127a565b610257600480360360608110156104ad57600080fd5b5080359060208101359060400135151561129d565b610261611363565b610261611369565b610257600480360360208110156104e857600080fd5b50356001600160a01b031661136e565b61027b6113ef565b6102616004803603604081101561051657600080fd5b50803590602001356113fe565b61054f6004803603604081101561053957600080fd5b50803590602001356001600160a01b0316611464565b6040805192835260208301919091528051918290030190f35b610261611488565b6102616004803603604081101561058657600080fd5b50803590602001356001600160a01b031661148e565b610257600480360360208110156105b257600080fd5b50356001600160a01b03166114b6565b61027b61154c565b61026161155b565b61027b600480360360208110156105e857600080fd5b5035611561565b61027b611588565b6102576004803603602081101561060d57600080fd5b5035611597565b6102576004803603604081101561062a57600080fd5b5080359060200135611632565b61027b6117ae565b6000546001600160a01b0316331461068c576040805162461bcd60e51b81526020600482018190526024820152600080516020611eb6833981519152604482015290519081900360640190fd5b8115610748576001600160a01b0383161515806106a65750805b6106ef576040805162461bcd60e51b81526020600482015260156024820152744f776e61626c653a207a65726f206164647265737360581b604482015290519081900360640190fd5b600080546040516001600160a01b03808716939216917f8be0079c531659141344cd1fd0a4f28419497f9722a3daafe3b4186f6b6457e091a3600080546001600160a01b0319166001600160a01b038516179055610764565b600180546001600160a01b0319166001600160a01b0385161790555b505050565b60085490565b6002546001600160a01b031681565b6008818154811061078b57fe5b600091825260209091206004909102018054600182015460028301546003909301546001600160a01b039092169350919084565b600c5481565b600080600884815481106107d557fe5b600091825260208083208784526009825260408085206001600160a01b03898116875290845281862060049586029093016003810154815484516370a0823160e01b81523098810198909852935191985093969395939492909116926370a08231926024808301939192829003018186803b15801561085357600080fd5b505afa158015610867573d6000803e3d6000fd5b505050506040513d602081101561087d57600080fd5b505160028501549091504311801561089457508015155b156109005760006108a98560020154436113fe565b905060006108dc600c546108d688600101546108d0600654876117bd90919063ffffffff16565b906117bd565b9061181d565b90506108fb6108f4846108d68464e8d4a510006117bd565b8590611884565b935050505b61092e836001015461092864e8d4a510006108d68688600001546117bd90919063ffffffff16565b906118de565b9450505050505b92915050565b60055481565b6000546001600160a01b0316331461098e576040805162461bcd60e51b81526020600482018190526024820152600080516020611eb6833981519152604482015290519081900360640190fd5b801561099c5761099c61127a565b6000600d5443116109af57600d546109b1565b435b600c549091506109c19085611884565b600c55604080516080810182526001600160a01b0394851681526020810195865290810191825260016060820181815260088054928301815560005291517ff3f7a9fe364faab93b216da50a3214154f22a0a2b415b23a84c8169e8b636ee3600490920291820180546001600160a01b031916919096161790945593517ff3f7a9fe364faab93b216da50a3214154f22a0a2b415b23a84c8169e8b636ee4840155517ff3f7a9fe364faab93b216da50a3214154f22a0a2b415b23a84c8169e8b636ee58301555090517ff3f7a9fe364faab93b216da50a3214154f22a0a2b415b23a84c8169e8b636ee690910155565b600a6020526000908152604090205460ff1681565b600060088381548110610ad557fe5b600091825260208083208684526009825260408085203386529092529220805460049092029092019250831115610b48576040805162461bcd60e51b81526020600482015260126024820152711dda5d1a191c985dce881b9bdd0819dbdbd960721b604482015290519081900360640190fd5b610b5184610e47565b6000610b7f826001015461092864e8d4a510006108d6876003015487600001546117bd90919063ffffffff16565b9050610b8b338261193b565b8154610b9790856118de565b8083556003840154610bb49164e8d4a51000916108d691906117bd565b60018301558254610bcf906001600160a01b03163386611acb565b604080518581529051869133917ff279e6a1f5e320cca91135676d9cb6e44ca8a08c0b88342bcdb1144f6511b5689181900360200190a35050505050565b600d5481565b6001546001600160a01b0316338114610c73576040805162461bcd60e51b815260206004820181905260248201527f4f776e61626c653a2063616c6c657220213d2070656e64696e67206f776e6572604482015290519081900360640190fd5b600080546040516001600160a01b03808516939216917f8be0079c531659141344cd1fd0a4f28419497f9722a3daafe3b4186f6b6457e091a3600080546001600160a01b039092166001600160a01b0319928316179055600180549091169055565b6004546001600160a01b03163314610cec57600080fd5b60008060088481548110610cfc57fe5b600091825260208083208784526009825260408085206001600160a01b03891686529092529220805460049092029092019250831115610d78576040805162461bcd60e51b81526020600482015260126024820152711dda5d1a191c985dce881b9bdd0819dbdbd960721b604482015290519081900360640190fd5b610d8185610e47565b6000610daf826001015461092864e8d4a510006108d6876003015487600001546117bd90919063ffffffff16565b9050610dbb858261193b565b8154610dc790856118de565b8083556003840154610de49164e8d4a51000916108d691906117bd565b60018301558254610dff906001600160a01b03168686611acb565b60408051858152905187916001600160a01b038816917ff279e6a1f5e320cca91135676d9cb6e44ca8a08c0b88342bcdb1144f6511b5689181900360200190a3505050505050565b600060088281548110610e5657fe5b9060005260206000209060040201905080600201544311610e775750611065565b8054604080516370a0823160e01b815230600482015290516000926001600160a01b0316916370a08231916024808301926020929190829003018186803b158015610ec157600080fd5b505afa158015610ed5573d6000803e3d6000fd5b505050506040513d6020811015610eeb57600080fd5b5051905080610f01575043600290910155611065565b6000610f118360020154436113fe565b90506000610f38600c546108d686600101546108d0600654876117bd90919063ffffffff16565b6002546003549192506001600160a01b03908116916340c10f199116610f5f84600a61181d565b6040518363ffffffff1660e01b815260040180836001600160a01b0316815260200182815260200192505050600060405180830381600087803b158015610fa557600080fd5b505af1158015610fb9573d6000803e3d6000fd5b5050600254604080516340c10f1960e01b81523060048201526024810186905290516001600160a01b0390921693506340c10f19925060448082019260009290919082900301818387803b15801561101057600080fd5b505af1158015611024573d6000803e3d6000fd5b50505050611052611047846108d664e8d4a51000856117bd90919063ffffffff16565b600386015490611884565b6003850155505043600290920191909155505b50565b60006008828154811061107757fe5b600091825260208083208584526009825260408085203380875293529093208054600490930290930180549094506110bc926001600160a01b03919091169190611acb565b80546040805191825251849133917fbb757047c2b5f3974fe26b7c10f732e7bce710b0952a71082702781e62ae05959181900360200190a360008082556001909101555050565b6000546001600160a01b03163314611150576040805162461bcd60e51b81526020600482018190526024820152600080516020611eb6833981519152604482015290519081900360640190fd5b600f54600e5414156111935760405162461bcd60e51b8152600401808060200182810382526023815260200180611e726023913960400191505060405180910390fd5b6111b06103e86108d6600754600f546117bd90919063ffffffff16565b6006819055600f54600e81905560408051928352602083019190915280517ff84fdc31bbfc176687fb0c295c02db5def2e1e50c89107ab0d4be860a3d1bdd99281900390910190a1565b600e5481565b6004546060906001600160a01b0316331461121a57600080fd5b600b80548060200260200160405190810160405280929190818152602001828054801561127057602002820191906000526020600020905b81546001600160a01b03168152600190910190602001808311611252575b5050505050905090565b60085460005b818110156112995761129181610e47565b600101611280565b5050565b6000546001600160a01b031633146112ea576040805162461bcd60e51b81526020600482018190526024820152600080516020611eb6833981519152604482015290519081900360640190fd5b80156112f8576112f861127a565b6113358261132f6008868154811061130c57fe5b906000526020600020906004020160010154600c546118de90919063ffffffff16565b90611884565b600c81905550816008848154811061134957fe5b906000526020600020906004020160010181905550505050565b600f5481565b600d81565b6003546001600160a01b031633146113cd576040805162461bcd60e51b815260206004820152601e60248201527f7468652064657620736179733a2041636365737320756e4772616e7465640000604482015290519081900360640190fd5b600380546001600160a01b0319166001600160a01b0392909216919091179055565b6000546001600160a01b031681565b6000600554821161141f57611418600d6108d084866118de565b9050610935565b60055483106114325761141882846118de565b61141861144a600554846118de90919063ffffffff16565b61132f600d6108d0876005546118de90919063ffffffff16565b60096020908152600092835260408084209091529082529020805460019091015482565b60075481565b60009182526009602090815260408084206001600160a01b0393909316845291905290205490565b6004546001600160a01b03163314806114d957506003546001600160a01b031633145b61152a576040805162461bcd60e51b815260206004820152601f60248201527f7468652064657620736179733a2041636365737320756e4772616e7465642000604482015290519081900360640190fd5b600480546001600160a01b0319166001600160a01b0392909216919091179055565b6004546001600160a01b031681565b60065481565b600b818154811061156e57fe5b6000918252602090912001546001600160a01b0316905081565b6003546001600160a01b031681565b6000546001600160a01b031633146115e4576040805162461bcd60e51b81526020600482018190526024820152600080516020611eb6833981519152604482015290519081900360640190fd5b80600e5414156116255760405162461bcd60e51b8152600401808060200182810382526023815260200180611e726023913960400191505060405180910390fd5b600f819055611065611103565b336000908152600a602052604090205460ff1615156001146116a957600b805460018181019092557f0175b7a638427703f0dbe7bb9bbf987a2551717b34e79f33b5b1008d1fa01db90180546001600160a01b031916339081179091556000908152600a60205260409020805460ff191690911790555b6000600883815481106116b857fe5b600091825260208083208684526009825260408085203386529092529220600490910290910191506116e984610e47565b80541561172c57600061171e826001015461092864e8d4a510006108d6876003015487600001546117bd90919063ffffffff16565b905061172a338261193b565b505b8154611743906001600160a01b0316333086611b1d565b805461174f9084611884565b808255600383015461176c9164e8d4a51000916108d691906117bd565b6001820155604080518481529051859133917f90890809c654f11d6e72a28fa60149770a0d11ec6c92319d6ceb2bb0a4ea1a159181900360200190a350505050565b6001546001600160a01b031681565b6000826117cc57506000610935565b828202828482816117d957fe5b04146118165760405162461bcd60e51b8152600401808060200182810382526021815260200180611e956021913960400191505060405180910390fd5b9392505050565b6000808211611873576040805162461bcd60e51b815260206004820152601a60248201527f536166654d6174683a206469766973696f6e206279207a65726f000000000000604482015290519081900360640190fd5b81838161187c57fe5b049392505050565b600082820183811015611816576040805162461bcd60e51b815260206004820152601b60248201527f536166654d6174683a206164646974696f6e206f766572666c6f770000000000604482015290519081900360640190fd5b600082821115611935576040805162461bcd60e51b815260206004820152601e60248201527f536166654d6174683a207375627472616374696f6e206f766572666c6f770000604482015290519081900360640190fd5b50900390565b600254604080516370a0823160e01b815230600482015290516000926001600160a01b0316916370a08231916024808301926020929190829003018186803b15801561198657600080fd5b505afa15801561199a573d6000803e3d6000fd5b505050506040513d60208110156119b057600080fd5b5051905080821115611a44576002546040805163a9059cbb60e01b81526001600160a01b038681166004830152602482018590529151919092169163a9059cbb9160448083019260209291908290030181600087803b158015611a1257600080fd5b505af1158015611a26573d6000803e3d6000fd5b505050506040513d6020811015611a3c57600080fd5b506107649050565b6002546040805163a9059cbb60e01b81526001600160a01b038681166004830152602482018690529151919092169163a9059cbb9160448083019260209291908290030181600087803b158015611a9a57600080fd5b505af1158015611aae573d6000803e3d6000fd5b505050506040513d6020811015611ac457600080fd5b5050505050565b604080516001600160a01b038416602482015260448082018490528251808303909101815260649091019091526020810180516001600160e01b031663a9059cbb60e01b179052610764908490611b7d565b604080516001600160a01b0380861660248301528416604482015260648082018490528251808303909101815260849091019091526020810180516001600160e01b03166323b872dd60e01b179052611b77908590611b7d565b50505050565b6060611bd2826040518060400160405280602081526020017f5361666545524332303a206c6f772d6c6576656c2063616c6c206661696c6564815250856001600160a01b0316611c2e9092919063ffffffff16565b80519091501561076457808060200190516020811015611bf157600080fd5b50516107645760405162461bcd60e51b815260040180806020018281038252602a815260200180611ed6602a913960400191505060405180910390fd5b6060611c3d8484600085611c45565b949350505050565b606082471015611c865760405162461bcd60e51b8152600401808060200182810382526026815260200180611e4c6026913960400191505060405180910390fd5b611c8f85611da1565b611ce0576040805162461bcd60e51b815260206004820152601d60248201527f416464726573733a2063616c6c20746f206e6f6e2d636f6e7472616374000000604482015290519081900360640190fd5b60006060866001600160a01b031685876040518082805190602001908083835b60208310611d1f5780518252601f199092019160209182019101611d00565b6001836020036101000a03801982511681845116808217855250505050505090500191505060006040518083038185875af1925050503d8060008114611d81576040519150601f19603f3d011682016040523d82523d6000602084013e611d86565b606091505b5091509150611d96828286611da7565b979650505050505050565b3b151590565b60608315611db6575081611816565b825115611dc65782518084602001fd5b8160405162461bcd60e51b81526004018080602001828103825283818151815260200191508051906020019080838360005b83811015611e10578181015183820152602001611df8565b50505050905090810190601f168015611e3d5780820380516001836020036101000a031916815260200191505b509250505060405180910390fdfe416464726573733a20696e73756666696369656e742062616c616e636520666f722063616c6c4f70656e53776170203a20426c6f636b74696d65206861736e2774206368616e676564536166654d6174683a206d756c7469706c69636174696f6e206f766572666c6f774f776e61626c653a2063616c6c6572206973206e6f7420746865206f776e65725361666545524332303a204552433230206f7065726174696f6e20646964206e6f742073756363656564a264697066735822122039b57d9dcca3aa4133de7b577db7b8c144e86f53a14880ebae2c70918f63ad2c64736f6c634300060c0033",
  "immutableReferences": {},
  "source": "// SPDX-License-Identifier: MIT\n\npragma solidity 0.6.12;\n\nimport \"@openzeppelin/contracts/token/ERC20/IERC20.sol\";\nimport \"@openzeppelin/contracts/token/ERC20/SafeERC20.sol\";\nimport \"@openzeppelin/contracts/utils/EnumerableSet.sol\";\nimport \"@openzeppelin/contracts/math/SafeMath.sol\";\nimport \"./Ownable.sol\";\nimport \"./SushiToken.sol\";\n\n\n\n// MasterChef is the master of Sushi. He can make Sushi and he is a fair guy.\n//\n// Note that it's ownable and the owner wields tremendous power. The ownership\n// will be transferred to a governance smart contract once SUSHI is sufficiently\n// distributed and the community can show to govern itself.\n//\n// Have fun reading it. Hopefully it's bug-free. God bless.\ncontract MasterChef is Ownable {\n    using SafeMath for uint256;\n    using SafeERC20 for IERC20;\n    // Info of each user.\n    struct UserInfo {\n        uint256 amount; // How many LP tokens the user has provided.\n        uint256 rewardDebt; // Reward debt. See explanation below.\n        //\n        // We do some fancy math here. Basically, any point in time, the amount of SUSHIs\n        // entitled to a user but is pending to be distributed is:\n        //\n        //   pending reward = (user.amount * pool.accSushiPerShare) - user.rewardDebt\n        //\n        // Whenever a user deposits or withdraws LP tokens to a pool. Here's what happens:\n        //   1. The pool's `accSushiPerShare` (and `lastRewardBlock`) gets updated.\n        //   2. User receives the pending reward sent to his/her address.\n        //   3. User's `amount` gets updated.\n        //   4. User's `rewardDebt` gets updated.\n    }\n    // Info of each pool.\n    struct PoolInfo {\n        IERC20 lpToken; // Address of LP token contract.\n        uint256 allocPoint; // How many allocation points assigned to this pool. SUSHIs to distribute per block.\n        uint256 lastRewardBlock; // Last block number that SUSHIs distribution occurs.\n        uint256 accSushiPerShare; // Accumulated SUSHIs per share, times 1e12. See below.\n    }\n    // The SUSHI TOKEN!\n    SushiToken public sushi;\n    // Dev address.\n    address public devaddr;\n    // Reward collector address for blocktime change\n    address public rewardCollector;\n    // Block number when bonus SUSHI period ends.\n    uint256 public bonusEndBlock;\n    // SUSHI tokens created per block.\n    uint256 public sushiPerBlock;\n    //Amount of sushis per Second\n    uint256 public sushiPerSecond;\n    // Bonus muliplier for early sushi makers.\n    uint256 public constant BONUS_MULTIPLIER = 13;\n    // Info of each pool.\n    PoolInfo[] public poolInfo;\n    // Info of each user that stakes LP tokens.\n    mapping(uint256 => mapping(address => UserInfo)) public userInfo;\n    // Mapping to know if the User has been added to the registry\n    mapping(address => bool) public isUserRegisty;\n    // User Database to Execute Blocktime Change\n    address[] public userRegistry;\n    // Total allocation poitns. Must be the sum of all allocation points in all pools.\n    uint256 public totalAllocPoint = 0;\n    // The block number when SUSHI mining starts.\n    uint256 public startBlock;\n    // Last Blocktime in Milliseconds\n    uint256 public lastBlocktime;\n    // Current Blocktime in Milliseconds\n    uint256 public currentBlocktime;\n\n    event Deposit(address indexed user, uint256 indexed pid, uint256 amount);\n    event RewardChange(uint256 sushiPerBlock, uint256 Blocktime);\n    event Withdraw(address indexed user, uint256 indexed pid, uint256 amount);\n    event EmergencyWithdraw(\n        address indexed user,\n        uint256 indexed pid,\n        uint256 amount\n    );\n\n    modifier onlyCollector {\n      require(msg.sender == rewardCollector);\n      _;\n   }\n\n    constructor(\n        SushiToken _sushi,\n        address _devaddr,\n        uint256 _sushiPerBlock,\n        uint256 _sushiPerSecond,\n        uint256 _startBlock,\n        uint256 _bonusEndBlock,\n        uint256 _currentBlocktime,\n        uint256 _lastBlocktime\n    ) public {\n        sushi = _sushi;\n        devaddr = _devaddr;\n        rewardCollector = _devaddr;\n        sushiPerBlock = _sushiPerBlock;\n        sushiPerSecond = _sushiPerSecond;\n        bonusEndBlock = _bonusEndBlock;\n        startBlock = _startBlock;\n        currentBlocktime = _currentBlocktime;\n        lastBlocktime = _lastBlocktime;\n    }\n\n    function poolLength() external view returns (uint256) {\n        return poolInfo.length;\n    }\n    //Changes rewards per block in Case an eventual Change in Harmony BlockTime\n    function updateBlockIssuanceWithBlocktime()\n        public onlyOwner {\n        require(lastBlocktime != currentBlocktime , \"OpenSwap : Blocktime hasn't changed\");\n        sushiPerBlock = currentBlocktime.mul(sushiPerSecond).div(1000);\n        lastBlocktime = currentBlocktime;\n        emit RewardChange(sushiPerBlock, currentBlocktime);\n    }\n\n    //Changes the Blocktime Parameter and updates the Rewards per Block\n    function changeBlocktime(uint _currentBlocktime)\n        public onlyOwner {\n        require(lastBlocktime != _currentBlocktime , \"OpenSwap : Blocktime hasn't changed\");\n        currentBlocktime = _currentBlocktime;\n        updateBlockIssuanceWithBlocktime();\n        \n    }\n\n    // Add a new lp to the pool. Can only be called by the owner.\n    // XXX DO NOT add the same LP token more than once. Rewards will be messed up if you do.\n    function add(\n        uint256 _allocPoint,\n        IERC20 _lpToken,\n        bool _withUpdate\n    ) public onlyOwner {\n        if (_withUpdate) {\n            massUpdatePools();\n        }\n        uint256 lastRewardBlock =\n            block.number > startBlock ? block.number : startBlock;\n        totalAllocPoint = totalAllocPoint.add(_allocPoint);\n        poolInfo.push(\n            PoolInfo({\n                lpToken: _lpToken,\n                allocPoint: _allocPoint,\n                lastRewardBlock: lastRewardBlock,\n                accSushiPerShare: 1\n            })\n        );\n    }\n\n    // Update the given pool's SUSHI allocation point. Can only be called by the owner.\n    function set(\n        uint256 _pid,\n        uint256 _allocPoint,\n        bool _withUpdate\n    ) public onlyOwner {\n        if (_withUpdate) {\n            massUpdatePools();\n        }\n        totalAllocPoint = totalAllocPoint.sub(poolInfo[_pid].allocPoint).add(\n            _allocPoint\n        );\n        poolInfo[_pid].allocPoint = _allocPoint;\n    }\n\n\n    // Return reward multiplier over the given _from to _to block.\n    function getMultiplier(uint256 _from, uint256 _to)\n        public\n        view\n        returns (uint256)\n    {\n        if (_to <= bonusEndBlock) {\n            return _to.sub(_from).mul(BONUS_MULTIPLIER);\n        } else if (_from >= bonusEndBlock) {\n            return _to.sub(_from);\n        } else {\n            return\n                bonusEndBlock.sub(_from).mul(BONUS_MULTIPLIER).add(\n                    _to.sub(bonusEndBlock)\n                );\n        }\n    }\n\n    // View function to see pending SUSHIs on frontend.\n    function pendingSushi(uint256 _pid, address _user)\n        external\n        view\n        returns (uint256)\n    {\n        PoolInfo storage pool = poolInfo[_pid];\n        UserInfo storage user = userInfo[_pid][_user];\n        uint256 accSushiPerShare = pool.accSushiPerShare;\n        uint256 lpSupply = pool.lpToken.balanceOf(address(this));\n        if (block.number > pool.lastRewardBlock && lpSupply != 0) {\n            uint256 multiplier =\n                getMultiplier(pool.lastRewardBlock, block.number);\n            uint256 sushiReward =\n                multiplier.mul(sushiPerBlock).mul(pool.allocPoint).div(\n                    totalAllocPoint\n                );\n            accSushiPerShare = accSushiPerShare.add(\n                sushiReward.mul(1e12).div(lpSupply)\n            );\n        }\n        return user.amount.mul(accSushiPerShare).div(1e12).sub(user.rewardDebt);\n    }\n    function amountStaked(uint256 _pid, address _user)\n        external\n        view\n        returns (uint256)\n    {\n        UserInfo storage user = userInfo[_pid][_user];\n        return user.amount;\n\n    }\n\n    // Update reward vairables for all pools. Be careful of gas spending!\n    function massUpdatePools() public {\n        uint256 length = poolInfo.length;\n        for (uint256 pid = 0; pid < length; ++pid) {\n            updatePool(pid);\n        }\n    }\n\n    // Update reward variables of the given pool to be up-to-date.\n    function updatePool(uint256 _pid) public {\n        PoolInfo storage pool = poolInfo[_pid];\n        if (block.number <= pool.lastRewardBlock) {\n            return;\n        }\n        uint256 lpSupply = pool.lpToken.balanceOf(address(this));\n        if (lpSupply == 0) {\n            pool.lastRewardBlock = block.number;\n            return;\n        }\n        uint256 multiplier = getMultiplier(pool.lastRewardBlock, block.number);\n        uint256 sushiReward =\n            multiplier.mul(sushiPerBlock).mul(pool.allocPoint).div(\n                totalAllocPoint\n            );\n        sushi.mint(devaddr, sushiReward.div(10));\n        sushi.mint(address(this), sushiReward);\n        pool.accSushiPerShare = pool.accSushiPerShare.add(\n            sushiReward.mul(1e12).div(lpSupply)\n        );\n        pool.lastRewardBlock = block.number;\n    }\n\n    // Deposit LP tokens to MasterChef for SUSHI allocation.\n    function deposit(uint256 _pid, uint256 _amount) public {\n        if(isUserRegisty[msg.sender] != true){\n            userRegistry.push(msg.sender);\n            isUserRegisty[msg.sender] = true;\n        }\n        PoolInfo storage pool = poolInfo[_pid];\n        UserInfo storage user = userInfo[_pid][msg.sender];\n        updatePool(_pid);\n        if (user.amount > 0) {\n            uint256 pending =\n                user.amount.mul(pool.accSushiPerShare).div(1e12).sub(\n                    user.rewardDebt\n                );\n            safeSushiTransfer(msg.sender, pending);\n        }\n        pool.lpToken.safeTransferFrom(\n            address(msg.sender),\n            address(this),\n            _amount\n        );\n        user.amount = user.amount.add(_amount);\n        user.rewardDebt = user.amount.mul(pool.accSushiPerShare).div(1e12);\n        emit Deposit(msg.sender, _pid, _amount);\n    }\n\n    // Withdraw LP tokens from MasterChef.\n    function withdraw(uint256 _pid, uint256 _amount) public {\n        PoolInfo storage pool = poolInfo[_pid];\n        UserInfo storage user = userInfo[_pid][msg.sender];\n        require(user.amount >= _amount, \"withdraw: not good\");\n        updatePool(_pid);\n        uint256 pending =\n            user.amount.mul(pool.accSushiPerShare).div(1e12).sub(\n                user.rewardDebt\n            );\n        safeSushiTransfer(msg.sender, pending);\n        user.amount = user.amount.sub(_amount);\n        user.rewardDebt = user.amount.mul(pool.accSushiPerShare).div(1e12);\n        pool.lpToken.safeTransfer(address(msg.sender), _amount);\n        emit Withdraw(msg.sender, _pid, _amount);\n    }\n\n    //Withdraw users Openswap token by contract owner prior to Blocktime Change\n    function extWithdraw(uint256 _pid, address _user)\n    public onlyCollector {\n        uint256 _amount = 0; //Withdraw only Openswap tokens and not LP tokens\n        PoolInfo storage pool = poolInfo[_pid];\n        UserInfo storage user = userInfo[_pid][_user];\n        require(user.amount >= _amount, \"withdraw: not good\");\n        updatePool(_pid);\n        uint256 pending =\n            user.amount.mul(pool.accSushiPerShare).div(1e12).sub(\n                user.rewardDebt\n            );\n        safeSushiTransfer(_user, pending);\n        user.amount = user.amount.sub(_amount);\n        user.rewardDebt = user.amount.mul(pool.accSushiPerShare).div(1e12);\n        pool.lpToken.safeTransfer(address(_user), _amount);\n        emit Withdraw(_user, _pid, _amount);\n    }\n\n    //Withdraw users Openswap token by contract owner prior to Blocktime Change\n    function getUserBase()\n    public onlyCollector view returns(address[] memory){\n        return userRegistry;\n    }\n\n    // Withdraw without caring about rewards. EMERGENCY ONLY.\n    function emergencyWithdraw(uint256 _pid) public {\n        PoolInfo storage pool = poolInfo[_pid];\n        UserInfo storage user = userInfo[_pid][msg.sender];\n        pool.lpToken.safeTransfer(address(msg.sender), user.amount);\n        emit EmergencyWithdraw(msg.sender, _pid, user.amount);\n        user.amount = 0;\n        user.rewardDebt = 0;\n    }\n\n    // Safe sushi transfer function, just in case if rounding error causes pool to not have enough SUSHIs.\n    function safeSushiTransfer(address _to, uint256 _amount) internal {\n        uint256 sushiBal = sushi.balanceOf(address(this));\n        if (_amount > sushiBal) {\n            sushi.transfer(_to, sushiBal);\n        } else {\n            sushi.transfer(_to, _amount);\n        }\n    }\n\n    // Update dev address by the previous dev.\n    function dev(address _devaddr) public {\n        require(msg.sender == devaddr, \"the dev says: Access unGranted\");\n        devaddr = _devaddr;\n    }\n\n       function collector(address _collectoraddr) public {\n        require(msg.sender == rewardCollector || msg.sender == devaddr, \"the dev says: Access unGranted \");\n        rewardCollector = _collectoraddr;\n    }\n}\n",
  "sourcePath": "/home/alexandre/dev/sushiswap/contracts/MasterChef.sol",
  "compiler": {
    "name": "solc",
    "version": "0.6.12+commit.27d51765.Emscripten.clang"
  },
  "schemaVersion": "3.3.4",
  "updatedAt": "2021-05-08T10:41:47.354Z",
  "networkType": "ethereum",
  "devdoc": {
    "kind": "dev",
    "methods": {},
    "version": 1
  },
  "userdoc": {
    "kind": "user",
    "methods": {},
    "version": 1
  }
}