{
  "contractName": "SafeERC20",
  "abi": [
    {
      "inputs": [
        {
          "internalType": "contract IERC20",
          "name": "token",
          "type": "IERC20"
        }
      ],
      "name": "safeDecimals",
      "outputs": [
        {
          "internalType": "uint8",
          "name": "",
          "type": "uint8"
        }
      ],
      "stateMutability": "view",
      "type": "function"
    }
  ],
  "bytecode": "0x6101b8610026600b82828239805160001a60731461001957fe5b30600052607381538281f3fe73000000000000000000000000000000000000000030146080604052600436106100355760003560e01c806372a58ae11461003a575b600080fd5b6100606004803603602081101561005057600080fd5b50356001600160a01b0316610076565b6040805160ff9092168252519081900360200190f35b60408051600481526024810182526020810180516001600160e01b031663313ce56760e01b1781529151815160009384936060936001600160a01b03881693919290918291908083835b602083106100df5780518252601f1990920191602091820191016100c0565b6001836020036101000a038019825116818451168082178552505050505050905001915050600060405180830381855afa9150503d806000811461013f576040519150601f19603f3d011682016040523d82523d6000602084013e610144565b606091505b5091509150818015610157575080516020145b61016257601261017a565b80806020019051602081101561017757600080fd5b50515b94935050505056fea2646970667358221220e3a98c79dbb065c469e7c254c19f05d846d04c4316f5f491448571728f4d664164736f6c634300060c0033",
  "immutableReferences": {},
  "source": "// SPDX-License-Identifier: MIT\npragma solidity 0.6.12;\n\nimport \"../interfaces/IERC20.sol\";\n\nlibrary SafeERC20 {\n    function safeSymbol(IERC20 token) internal view returns(string memory) {\n        (bool success, bytes memory data) = address(token).staticcall(abi.encodeWithSelector(0x95d89b41));\n        return success && data.length > 0 ? abi.decode(data, (string)) : \"???\";\n    }\n\n    function safeName(IERC20 token) internal view returns(string memory) {\n        (bool success, bytes memory data) = address(token).staticcall(abi.encodeWithSelector(0x06fdde03));\n        return success && data.length > 0 ? abi.decode(data, (string)) : \"???\";\n    }\n\n    function safeDecimals(IERC20 token) public view returns (uint8) {\n        (bool success, bytes memory data) = address(token).staticcall(abi.encodeWithSelector(0x313ce567));\n        return success && data.length == 32 ? abi.decode(data, (uint8)) : 18;\n    }\n\n    function safeTransfer(IERC20 token, address to, uint256 amount) internal {\n        (bool success, bytes memory data) = address(token).call(abi.encodeWithSelector(0xa9059cbb, to, amount));\n        require(success && (data.length == 0 || abi.decode(data, (bool))), \"SafeERC20: Transfer failed\");\n    }\n\n    function safeTransferFrom(IERC20 token, address from, uint256 amount) internal {\n        (bool success, bytes memory data) = address(token).call(abi.encodeWithSelector(0x23b872dd, from, address(this), amount));\n        require(success && (data.length == 0 || abi.decode(data, (bool))), \"SafeERC20: TransferFrom failed\");\n    }\n}\n",
  "sourcePath": "/home/alexandre/dev/sushiswap/contracts/libraries/SafeERC20.sol",
  "compiler": {
    "name": "solc",
    "version": "0.6.12+commit.27d51765.Emscripten.clang"
  },
  "schemaVersion": "3.3.4",
  "updatedAt": "2021-05-08T10:13:27.894Z",
  "devdoc": {
    "kind": "dev",
    "methods": {},
    "version": 1
  },
  "userdoc": {
    "kind": "user",
    "methods": {},
    "version": 1
  }
}