{
  "contractName": "SushiRestaurant",
  "abi": [
    {
      "inputs": [
        {
          "internalType": "contract IERC20",
          "name": "_sushi",
          "type": "address"
        },
        {
          "internalType": "uint256",
          "name": "_reductionPerBlock",
          "type": "uint256"
        }
      ],
      "stateMutability": "nonpayable",
      "type": "constructor"
    },
    {
      "anonymous": false,
      "inputs": [
        {
          "indexed": true,
          "internalType": "address",
          "name": "user",
          "type": "address"
        },
        {
          "indexed": false,
          "internalType": "uint256",
          "name": "amount",
          "type": "uint256"
        }
      ],
      "name": "Enter",
      "type": "event"
    },
    {
      "anonymous": false,
      "inputs": [
        {
          "indexed": true,
          "internalType": "address",
          "name": "user",
          "type": "address"
        },
        {
          "indexed": false,
          "internalType": "uint256",
          "name": "amount",
          "type": "uint256"
        }
      ],
      "name": "Leave",
      "type": "event"
    },
    {
      "inputs": [],
      "name": "accSushiPerShare",
      "outputs": [
        {
          "internalType": "uint256",
          "name": "",
          "type": "uint256"
        }
      ],
      "stateMutability": "view",
      "type": "function"
    },
    {
      "inputs": [],
      "name": "ackSushiBalance",
      "outputs": [
        {
          "internalType": "uint256",
          "name": "",
          "type": "uint256"
        }
      ],
      "stateMutability": "view",
      "type": "function"
    },
    {
      "inputs": [],
      "name": "lastMultiplerProcessBlock",
      "outputs": [
        {
          "internalType": "uint256",
          "name": "",
          "type": "uint256"
        }
      ],
      "stateMutability": "view",
      "type": "function"
    },
    {
      "inputs": [],
      "name": "multiplier",
      "outputs": [
        {
          "internalType": "uint256",
          "name": "",
          "type": "uint256"
        }
      ],
      "stateMutability": "view",
      "type": "function"
    },
    {
      "inputs": [],
      "name": "reductionPerBlock",
      "outputs": [
        {
          "internalType": "uint256",
          "name": "",
          "type": "uint256"
        }
      ],
      "stateMutability": "view",
      "type": "function"
    },
    {
      "inputs": [],
      "name": "sushi",
      "outputs": [
        {
          "internalType": "contract IERC20",
          "name": "",
          "type": "address"
        }
      ],
      "stateMutability": "view",
      "type": "function"
    },
    {
      "inputs": [],
      "name": "totalShares",
      "outputs": [
        {
          "internalType": "uint256",
          "name": "",
          "type": "uint256"
        }
      ],
      "stateMutability": "view",
      "type": "function"
    },
    {
      "inputs": [
        {
          "internalType": "address",
          "name": "",
          "type": "address"
        }
      ],
      "name": "userInfo",
      "outputs": [
        {
          "internalType": "uint256",
          "name": "amount",
          "type": "uint256"
        },
        {
          "internalType": "uint256",
          "name": "share",
          "type": "uint256"
        },
        {
          "internalType": "uint256",
          "name": "rewardDebt",
          "type": "uint256"
        }
      ],
      "stateMutability": "view",
      "type": "function"
    },
    {
      "inputs": [],
      "name": "cleanup",
      "outputs": [],
      "stateMutability": "nonpayable",
      "type": "function"
    },
    {
      "inputs": [
        {
          "internalType": "address",
          "name": "_user",
          "type": "address"
        }
      ],
      "name": "getPendingReward",
      "outputs": [
        {
          "internalType": "uint256",
          "name": "",
          "type": "uint256"
        }
      ],
      "stateMutability": "view",
      "type": "function"
    },
    {
      "inputs": [
        {
          "internalType": "uint256",
          "name": "_amount",
          "type": "uint256"
        }
      ],
      "name": "enter",
      "outputs": [],
      "stateMutability": "nonpayable",
      "type": "function"
    },
    {
      "inputs": [
        {
          "internalType": "uint256",
          "name": "_amount",
          "type": "uint256"
        }
      ],
      "name": "leave",
      "outputs": [],
      "stateMutability": "nonpayable",
      "type": "function"
    }
  ],
  "bytecode": "0x608060405234801561001057600080fd5b50604051610a2d380380610a2d8339818101604052604081101561003357600080fd5b508051602090910151600080546001600160a01b0319166001600160a01b03909316929092178255600155670de0b6b3a7640000600255436003556109af90819061007e90396000f3fe608060405234801561001057600080fd5b50600436106100b45760003560e01c80634fd3c34a116100715780634fd3c34a1461017357806367dfd4c91461017b57806381daa61814610198578063a59f3e0c146101a0578063d955c66a146101bd578063e6f7c7a4146101c5576100b4565b80630a087903146100b95780631959a002146100dd5780631b3ed722146101215780633a98ef391461013b5780633cecd719146101435780634df9d6ba1461014d575b600080fd5b6100c16101cd565b604080516001600160a01b039092168252519081900360200190f35b610103600480360360208110156100f357600080fd5b50356001600160a01b03166101dc565b60408051938452602084019290925282820152519081900360600190f35b6101296101fd565b60408051918252519081900360200190f35b610129610203565b61014b610209565b005b6101296004803603602081101561016357600080fd5b50356001600160a01b031661037e565b6101296103ca565b61014b6004803603602081101561019157600080fd5b50356103d0565b6101296104ab565b61014b600480360360208110156101b657600080fd5b50356104b1565b61012961061a565b610129610620565b6000546001600160a01b031681565b60076020526000908152604090208054600182015460029092015490919083565b60025481565b60065481565b60006102206003544361062690919063ffffffff16565b600154909150670de0b6b3a7640000905b821561028257600183161561025f5761025c670de0b6b3a76400006102568484610688565b906106e1565b91505b610275670de0b6b3a76400006102568380610688565b9050600283049250610231565b6102a3670de0b6b3a76400006102568460025461068890919063ffffffff16565b60025543600355600654156103795760055460008054604080516370a0823160e01b8152306004820152905192936103389390926001600160a01b0316916370a08231916024808301926020929190829003018186803b15801561030657600080fd5b505afa15801561031a573d6000803e3d6000fd5b505050506040513d602081101561033057600080fd5b505190610626565b905061036461035b60065461025664e8d4a510008561068890919063ffffffff16565b60045490610748565b6004556005546103749082610748565b600555505b505050565b6001600160a01b0381166000908152600760205260408120600281015460045460018301546103c392916103bd9164e8d4a51000916102569190610688565b90610626565b9392505050565b60045481565b6103d8610209565b6103ea336103e53361037e565b6107a2565b3360009081526007602052604081208054600182015491929161041291906102569086610688565b82549091506104219084610626565b82556006546104309082610626565b60065560018201546104429082610626565b600183018190556004546104619164e8d4a51000916102569190610688565b600283015561047033846107a2565b60408051848152905133917f61a26f7c17d8780c095ccfa67e689a13ee4e06ddce3da18956369f4a396100e8919081900360200190a2505050565b60055481565b6104b9610209565b6104c6336103e53361037e565b60008054604080516323b872dd60e01b81523360048201523060248201526044810185905290516001600160a01b03909216926323b872dd926064808401936020939083900390910190829087803b15801561052157600080fd5b505af1158015610535573d6000803e3d6000fd5b505050506040513d602081101561054b57600080fd5b505060055461055a9082610748565b60055533600090815260076020526040812060025490919061058b90670de0b6b3a764000090610256908690610688565b825490915061059a9084610748565b82556006546105a99082610748565b60065560018201546105bb9082610748565b600183018190556004546105da9164e8d4a51000916102569190610688565b600283015560408051848152905133917f1fb48929215fc354244acea33112720ce5b7ba6912db70bb0149e77aa7c91ce1919081900360200190a2505050565b60035481565b60015481565b60008282111561067d576040805162461bcd60e51b815260206004820152601e60248201527f536166654d6174683a207375627472616374696f6e206f766572666c6f770000604482015290519081900360640190fd5b508082035b92915050565b60008261069757506000610682565b828202828482816106a457fe5b04146103c35760405162461bcd60e51b81526004018080602001828103825260218152602001806109596021913960400191505060405180910390fd5b6000808211610737576040805162461bcd60e51b815260206004820152601a60248201527f536166654d6174683a206469766973696f6e206279207a65726f000000000000604482015290519081900360640190fd5b81838161074057fe5b049392505050565b6000828201838110156103c3576040805162461bcd60e51b815260206004820152601b60248201527f536166654d6174683a206164646974696f6e206f766572666c6f770000000000604482015290519081900360640190fd5b60008054604080516370a0823160e01b815230600482015290516001600160a01b03909216916370a0823191602480820192602092909190829003018186803b1580156107ee57600080fd5b505afa158015610802573d6000803e3d6000fd5b505050506040513d602081101561081857600080fd5b50519050808211156108be57600080546040805163a9059cbb60e01b81526001600160a01b038781166004830152602482018690529151919092169263a9059cbb92604480820193602093909283900390910190829087803b15801561087d57600080fd5b505af1158015610891573d6000803e3d6000fd5b505050506040513d60208110156108a757600080fd5b50506005546108b69082610626565b600555610379565b600080546040805163a9059cbb60e01b81526001600160a01b038781166004830152602482018790529151919092169263a9059cbb92604480820193602093909283900390910190829087803b15801561091757600080fd5b505af115801561092b573d6000803e3d6000fd5b505050506040513d602081101561094157600080fd5b50506005546109509083610626565b60055550505056fe536166654d6174683a206d756c7469706c69636174696f6e206f766572666c6f77a264697066735822122051463d25aec84b98d9bfe791d45f6f3a6c92d8a557e47b8a2827c10dcdab410964736f6c634300060c0033",
  "immutableReferences": {},
  "source": "pragma solidity 0.6.12;\n\nimport \"@openzeppelin/contracts/token/ERC20/IERC20.sol\";\nimport \"@openzeppelin/contracts/math/SafeMath.sol\";\n\n\ncontract SushiRestaurant {\n    using SafeMath for uint256;\n    event Enter(address indexed user, uint256 amount);\n    event Leave(address indexed user, uint256 amount);\n\n    IERC20 public sushi;\n\n    uint256 public reductionPerBlock;\n    uint256 public multiplier;\n    uint256 public lastMultiplerProcessBlock;\n\n    uint256 public accSushiPerShare;\n    uint256 public ackSushiBalance;\n    uint256 public totalShares;\n\n    struct UserInfo {\n        uint256 amount; // SUSHI stake amount\n        uint256 share;\n        uint256 rewardDebt;\n    }\n\n    mapping (address => UserInfo) public userInfo;\n\n    constructor(IERC20 _sushi, uint256 _reductionPerBlock) public {\n        sushi = _sushi;\n        reductionPerBlock = _reductionPerBlock; // Use 999999390274979584 for 10% per month\n        multiplier = 1e18; // Should be good for 20 years\n        lastMultiplerProcessBlock = block.number;\n    }\n\n    // Clean the restaurant. Called whenever someone enters or leaves.\n    function cleanup() public {\n        // Update multiplier\n        uint256 reductionTimes = block.number.sub(lastMultiplerProcessBlock);\n        uint256 fraction = 1e18;\n        uint256 acc = reductionPerBlock;\n        while (reductionTimes > 0) {\n            if (reductionTimes & 1 != 0) {\n                fraction = fraction.mul(acc).div(1e18);\n            }\n            acc = acc.mul(acc).div(1e18);\n            reductionTimes = reductionTimes / 2;\n        }\n        multiplier = multiplier.mul(fraction).div(1e18);\n        lastMultiplerProcessBlock = block.number;\n        // Update accSushiPerShare / ackSushiBalance\n        if (totalShares > 0) {\n            uint256 additionalSushi = sushi.balanceOf(address(this)).sub(ackSushiBalance);\n            accSushiPerShare = accSushiPerShare.add(additionalSushi.mul(1e12).div(totalShares));\n            ackSushiBalance = ackSushiBalance.add(additionalSushi);\n        }\n    }\n\n    // Get user pending reward. May be outdated until someone calls cleanup.\n    function getPendingReward(address _user) public view returns (uint256) {\n        UserInfo storage user = userInfo[_user];\n        return user.share.mul(accSushiPerShare).div(1e12).sub(user.rewardDebt);\n    }\n\n    // Enter the restaurant. Pay some SUSHIs. Earn some shares.\n    function enter(uint256 _amount) public {\n        cleanup();\n        safeSushiTransfer(msg.sender, getPendingReward(msg.sender));\n        sushi.transferFrom(msg.sender, address(this), _amount);\n        ackSushiBalance = ackSushiBalance.add(_amount);\n        UserInfo storage user = userInfo[msg.sender];\n        uint256 moreShare = _amount.mul(multiplier).div(1e18);\n        user.amount = user.amount.add(_amount);\n        totalShares = totalShares.add(moreShare);\n        user.share = user.share.add(moreShare);\n        user.rewardDebt = user.share.mul(accSushiPerShare).div(1e12);\n        emit Enter(msg.sender, _amount);\n    }\n\n    // Leave the restaurant. Claim back your SUSHIs.\n    function leave(uint256 _amount) public {\n        cleanup();\n        safeSushiTransfer(msg.sender, getPendingReward(msg.sender));\n        UserInfo storage user = userInfo[msg.sender];\n        uint256 lessShare = user.share.mul(_amount).div(user.amount);\n        user.amount = user.amount.sub(_amount);\n        totalShares = totalShares.sub(lessShare);\n        user.share = user.share.sub(lessShare);\n        user.rewardDebt = user.share.mul(accSushiPerShare).div(1e12);\n        safeSushiTransfer(msg.sender, _amount);\n        emit Leave(msg.sender, _amount);\n    }\n\n    // Safe sushi transfer function, just in case if rounding error causes pool to not have enough SUSHIs.\n    function safeSushiTransfer(address _to, uint256 _amount) internal {\n        uint256 sushiBal = sushi.balanceOf(address(this));\n        if (_amount > sushiBal) {\n            sushi.transfer(_to, sushiBal);\n            ackSushiBalance = ackSushiBalance.sub(sushiBal);\n        } else {\n            sushi.transfer(_to, _amount);\n            ackSushiBalance = ackSushiBalance.sub(_amount);\n        }\n    }\n}",
  "sourcePath": "/home/alexandre/dev/sushiswap/contracts/SushiRestaurant.sol",
  "compiler": {
    "name": "solc",
    "version": "0.6.12+commit.27d51765.Emscripten.clang"
  },
  "schemaVersion": "3.3.4",
  "updatedAt": "2021-04-28T12:52:38.794Z",
  "devdoc": {
    "kind": "dev",
    "methods": {},
    "version": 1
  },
  "userdoc": {
    "kind": "user",
    "methods": {},
    "version": 1
  }
}