{
  "contractName": "SushiSwapFactoryMock",
  "abi": [
    {
      "inputs": [
        {
          "internalType": "address",
          "name": "_feeToSetter",
          "type": "address"
        }
      ],
      "stateMutability": "nonpayable",
      "type": "constructor"
    },
    {
      "anonymous": false,
      "inputs": [
        {
          "indexed": true,
          "internalType": "address",
          "name": "token0",
          "type": "address"
        },
        {
          "indexed": true,
          "internalType": "address",
          "name": "token1",
          "type": "address"
        },
        {
          "indexed": false,
          "internalType": "address",
          "name": "pair",
          "type": "address"
        },
        {
          "indexed": false,
          "internalType": "uint256",
          "name": "",
          "type": "uint256"
        }
      ],
      "name": "PairCreated",
      "type": "event"
    },
    {
      "inputs": [
        {
          "internalType": "uint256",
          "name": "",
          "type": "uint256"
        }
      ],
      "name": "allPairs",
      "outputs": [
        {
          "internalType": "address",
          "name": "",
          "type": "address"
        }
      ],
      "stateMutability": "view",
      "type": "function"
    },
    {
      "inputs": [],
      "name": "allPairsLength",
      "outputs": [
        {
          "internalType": "uint256",
          "name": "",
          "type": "uint256"
        }
      ],
      "stateMutability": "view",
      "type": "function"
    },
    {
      "inputs": [
        {
          "internalType": "address",
          "name": "tokenA",
          "type": "address"
        },
        {
          "internalType": "address",
          "name": "tokenB",
          "type": "address"
        }
      ],
      "name": "createPair",
      "outputs": [
        {
          "internalType": "address",
          "name": "pair",
          "type": "address"
        }
      ],
      "stateMutability": "nonpayable",
      "type": "function"
    },
    {
      "inputs": [],
      "name": "feeTo",
      "outputs": [
        {
          "internalType": "address",
          "name": "",
          "type": "address"
        }
      ],
      "stateMutability": "view",
      "type": "function"
    },
    {
      "inputs": [],
      "name": "feeToSetter",
      "outputs": [
        {
          "internalType": "address",
          "name": "",
          "type": "address"
        }
      ],
      "stateMutability": "view",
      "type": "function"
    },
    {
      "inputs": [
        {
          "internalType": "address",
          "name": "",
          "type": "address"
        },
        {
          "internalType": "address",
          "name": "",
          "type": "address"
        }
      ],
      "name": "getPair",
      "outputs": [
        {
          "internalType": "address",
          "name": "",
          "type": "address"
        }
      ],
      "stateMutability": "view",
      "type": "function"
    },
    {
      "inputs": [],
      "name": "migrator",
      "outputs": [
        {
          "internalType": "address",
          "name": "",
          "type": "address"
        }
      ],
      "stateMutability": "view",
      "type": "function"
    },
    {
      "inputs": [],
      "name": "pairCodeHash",
      "outputs": [
        {
          "internalType": "bytes32",
          "name": "",
          "type": "bytes32"
        }
      ],
      "stateMutability": "pure",
      "type": "function"
    },
    {
      "inputs": [
        {
          "internalType": "address",
          "name": "_feeTo",
          "type": "address"
        }
      ],
      "name": "setFeeTo",
      "outputs": [],
      "stateMutability": "nonpayable",
      "type": "function"
    },
    {
      "inputs": [
        {
          "internalType": "address",
          "name": "_feeToSetter",
          "type": "address"
        }
      ],
      "name": "setFeeToSetter",
      "outputs": [],
      "stateMutability": "nonpayable",
      "type": "function"
    },
    {
      "inputs": [
        {
          "internalType": "address",
          "name": "_migrator",
          "type": "address"
        }
      ],
      "name": "setMigrator",
      "outputs": [],
      "stateMutability": "nonpayable",
      "type": "function"
    }
  ],
  "bytecode": "0x608060405234801561001057600080fd5b506040516130e53803806130e58339818101604052602081101561003357600080fd5b5051600180546001600160a01b0319166001600160a01b03909216919091179055613082806100636000396000f3fe608060405234801561001057600080fd5b50600436106100a95760003560e01c80637cd07e47116100715780637cd07e47146101395780639aab924814610141578063a2e74af614610149578063c9c653961461016f578063e6a439051461019d578063f46901ed146101cb576100a9565b8063017e7e58146100ae578063094b7415146100d25780631e3dd18b146100da57806323cf3118146100f7578063574f2ba31461011f575b600080fd5b6100b66101f1565b604080516001600160a01b039092168252519081900360200190f35b6100b6610200565b6100b6600480360360208110156100f057600080fd5b503561020f565b61011d6004803603602081101561010d57600080fd5b50356001600160a01b0316610236565b005b6101276102ac565b60408051918252519081900360200190f35b6100b66102b2565b6101276102c1565b61011d6004803603602081101561015f57600080fd5b50356001600160a01b03166102f3565b6100b66004803603604081101561018557600080fd5b506001600160a01b0381358116916020013516610369565b6100b6600480360360408110156101b357600080fd5b506001600160a01b038135811691602001351661068a565b61011d600480360360208110156101e157600080fd5b50356001600160a01b03166106b0565b6000546001600160a01b031681565b6001546001600160a01b031681565b6004818154811061021c57fe5b6000918252602090912001546001600160a01b0316905081565b6001546001600160a01b0316331461028a576040805162461bcd60e51b815260206004820152601260248201527127b832b729bbb0b8102327a92124a22222a760711b604482015290519081900360640190fd5b600280546001600160a01b0319166001600160a01b0392909216919091179055565b60045490565b6002546001600160a01b031681565b6000604051806020016102d390610726565b6020820181038252601f19601f8201166040525080519060200120905090565b6001546001600160a01b03163314610347576040805162461bcd60e51b815260206004820152601260248201527127b832b729bbb0b8102327a92124a22222a760711b604482015290519081900360640190fd5b600180546001600160a01b0319166001600160a01b0392909216919091179055565b6000816001600160a01b0316836001600160a01b031614156103d2576040805162461bcd60e51b815260206004820152601c60248201527f4f70656e53776170204944454e544943414c5f41444452455353455300000000604482015290519081900360640190fd5b600080836001600160a01b0316856001600160a01b0316106103f55783856103f8565b84845b90925090506001600160a01b038216610450576040805162461bcd60e51b81526020600482015260156024820152744f70656e53776170205a45524f5f4144445245535360581b604482015290519081900360640190fd5b6001600160a01b038281166000908152600360209081526040808320858516845290915290205416156104c1576040805162461bcd60e51b81526020600482015260146024820152734f70656e5377617020504149525f45584953545360601b604482015290519081900360640190fd5b6060604051806020016104d390610726565b6020820181038252601f19601f8201166040525090506000838360405160200180836001600160a01b031660601b8152601401826001600160a01b031660601b815260140192505050604051602081830303815290604052805190602001209050808251602084016000f59450846001600160a01b031663485cc95585856040518363ffffffff1660e01b815260040180836001600160a01b03168152602001826001600160a01b0316815260200192505050600060405180830381600087803b1580156105a057600080fd5b505af11580156105b4573d6000803e3d6000fd5b505050506001600160a01b0384811660008181526003602081815260408084208987168086529083528185208054978d166001600160a01b031998891681179091559383528185208686528352818520805488168517905560048054600181018255958190527f8a35acfbc15ff81a39ae7d344fd709f28e8600b4aa8c65c6b64bfe7fe36bd19b90950180549097168417909655925483519283529082015281517f0d3648bd0f6ba80134a33ba9275ac585d9d315f0ad8355cddefde31afa28d0e9929181900390910190a35050505092915050565b60036020908152600092835260408084209091529082529020546001600160a01b031681565b6001546001600160a01b03163314610704576040805162461bcd60e51b815260206004820152601260248201527127b832b729bbb0b8102327a92124a22222a760711b604482015290519081900360640190fd5b600080546001600160a01b0319166001600160a01b0392909216919091179055565b612919806107348339019056fe60806040526003600d556001600e5534801561001a57600080fd5b50604080518082018252601181527027b832b729bbb0b8102628102a37b5b2b760791b6020918201528151808301835260018152603160f81b9082015281517f8b73c3c69bb8fe3d512ecc4cf759cc79239f7b179b0ffacaa9a75d522b39400f818301527fe8838df88a7659d989b68692f123c4ec283e629a2bc5efcd726fe7dc6673dec2818401527fc89efdaa54c0f20c7adf612882df0950f5a951637e0307cdcb4c672f298b8bc660608201524660808201523060a0808301919091528351808303909101815260c09091019092528151910120600355600580546001600160a01b03191633179055612805806101146000396000f3fe608060405234801561001057600080fd5b50600436106101a95760003560e01c80636a627842116100f9578063ba9a7a5611610097578063d21220a711610071578063d21220a714610534578063d505accf1461053c578063dd62ed3e1461058d578063fff6cae9146105bb576101a9565b8063ba9a7a56146104fe578063bc25cf7714610506578063c45a01551461052c576101a9565b80637ecebe00116100d35780637ecebe001461046557806389afcb441461048b57806395d89b41146104ca578063a9059cbb146104d2576101a9565b80636a6278421461041157806370a08231146104375780637464fc3d1461045d576101a9565b806323b872dd116101665780633644e515116101405780633644e515146103cb578063485cc955146103d35780635909c0d5146104015780635a3d549314610409576101a9565b806323b872dd1461036f57806330adf81f146103a5578063313ce567146103ad576101a9565b8063022c0d9f146101ae57806306fdde031461023c5780630902f1ac146102b9578063095ea7b3146102f15780630dfe16811461033157806318160ddd14610355575b600080fd5b61023a600480360360808110156101c457600080fd5b8135916020810135916001600160a01b0360408301351691908101906080810160608201356401000000008111156101fb57600080fd5b82018360208201111561020d57600080fd5b8035906020019184600183028401116401000000008311171561022f57600080fd5b5090925090506105c3565b005b610244610adb565b6040805160208082528351818301528351919283929083019185019080838360005b8381101561027e578181015183820152602001610266565b50505050905090810190601f1680156102ab5780820380516001836020036101000a031916815260200191505b509250505060405180910390f35b6102c1610b08565b604080516001600160701b03948516815292909316602083015263ffffffff168183015290519081900360600190f35b61031d6004803603604081101561030757600080fd5b506001600160a01b038135169060200135610b32565b604080519115158252519081900360200190f35b610339610b49565b604080516001600160a01b039092168252519081900360200190f35b61035d610b58565b60408051918252519081900360200190f35b61031d6004803603606081101561038557600080fd5b506001600160a01b03813581169160208101359091169060400135610b5e565b61035d610bf2565b6103b5610c16565b6040805160ff9092168252519081900360200190f35b61035d610c1b565b61023a600480360360408110156103e957600080fd5b506001600160a01b0381358116916020013516610c21565b61035d610f43565b61035d610f49565b61035d6004803603602081101561042757600080fd5b50356001600160a01b0316610f4f565b61035d6004803603602081101561044d57600080fd5b50356001600160a01b03166113c9565b61035d6113db565b61035d6004803603602081101561047b57600080fd5b50356001600160a01b03166113e1565b6104b1600480360360208110156104a157600080fd5b50356001600160a01b03166113f3565b6040805192835260208301919091528051918290030190f35b610244611785565b61031d600480360360408110156104e857600080fd5b506001600160a01b038135169060200135611813565b61035d611820565b61023a6004803603602081101561051c57600080fd5b50356001600160a01b0316611826565b610339611996565b6103396119a5565b61023a600480360360e081101561055257600080fd5b506001600160a01b03813581169160208101359091169060408101359060608101359060ff6080820135169060a08101359060c001356119b4565b61035d600480360360408110156105a357600080fd5b506001600160a01b0381358116916020013516611bb5565b61023a611bd2565b600e5460011461060c576040805162461bcd60e51b815260206004820152600f60248201526e13dc195b94ddd85c081313d0d2d151608a1b604482015290519081900360640190fd5b6000600e558415158061061f5750600084115b61065a5760405162461bcd60e51b81526004018080602001828103825260238152602001806127ad6023913960400191505060405180910390fd5b600080610665610b08565b5091509150816001600160701b03168710801561068a5750806001600160701b031686105b6106db576040805162461bcd60e51b815260206004820152601f60248201527f4f70656e5377617020494e53554646494349454e545f4c495155494449545900604482015290519081900360640190fd5b60065460075460009182916001600160a01b039182169190811690891682148015906107195750806001600160a01b0316896001600160a01b031614155b610760576040805162461bcd60e51b81526020600482015260136024820152724f70656e5377617020494e56414c49445f544f60681b604482015290519081900360640190fd5b8a1561077157610771828a8d611d32565b891561078257610782818a8c611d32565b861561083457886001600160a01b03166310d1e85c338d8d8c8c6040518663ffffffff1660e01b815260040180866001600160a01b03168152602001858152602001848152602001806020018281038252848482818152602001925080828437600081840152601f19601f8201169050808301925050509650505050505050600060405180830381600087803b15801561081b57600080fd5b505af115801561082f573d6000803e3d6000fd5b505050505b604080516370a0823160e01b815230600482015290516001600160a01b038416916370a08231916024808301926020929190829003018186803b15801561087a57600080fd5b505afa15801561088e573d6000803e3d6000fd5b505050506040513d60208110156108a457600080fd5b5051604080516370a0823160e01b815230600482015290519195506001600160a01b038316916370a0823191602480820192602092909190829003018186803b1580156108f057600080fd5b505afa158015610904573d6000803e3d6000fd5b505050506040513d602081101561091a57600080fd5b5051925060009150506001600160701b0385168a9003831161093d57600061094c565b89856001600160701b03160383035b9050600089856001600160701b0316038311610969576000610978565b89856001600160701b03160383035b905060008211806109895750600081115b6109c45760405162461bcd60e51b815260040180806020018281038252602281526020018061278b6022913960400191505060405180910390fd5b60006109e66109d4846003611ec5565b6109e0876103e8611ec5565b90611f28565b905060006109f86109d4846003611ec5565b9050610a1d620f4240610a176001600160701b038b8116908b16611ec5565b90611ec5565b610a278383611ec5565b1015610a67576040805162461bcd60e51b815260206004820152600a6024820152694f70656e53776170204b60b01b604482015290519081900360640190fd5b5050610a7584848888611f78565b60408051838152602081018390528082018d9052606081018c905290516001600160a01b038b169133917fd78ad95fa46c994b6551d0da85fc275fe613ce37657fb8d5e3d130840159d8229181900360800190a350506001600e55505050505050505050565b6040518060400160405280601181526020017027b832b729bbb0b8102628102a37b5b2b760791b81525081565b6009546001600160701b0380821692600160701b830490911691600160e01b900463ffffffff1690565b6000610b3f338484612135565b5060015b92915050565b6006546001600160a01b031681565b60005481565b6001600160a01b038316600090815260026020908152604080832033845290915281205460001914610bdd576001600160a01b0384166000908152600260209081526040808320338452909152902054610bb89083611f28565b6001600160a01b03851660009081526002602090815260408083203384529091529020555b610be8848484612197565b5060019392505050565b7f6e71edae12b1b97f4d1f60370fef10105fa2faae0126114a169c64845d6126c981565b601281565b60035481565b6005546001600160a01b03163314610c75576040805162461bcd60e51b815260206004820152601260248201527127b832b729bbb0b8102327a92124a22222a760711b604482015290519081900360640190fd5b600680546001600160a01b038085166001600160a01b0319928316179283905560078054858316931692909217909155604080516395d89b4160e01b81529051606093909216916395d89b4191600480820192600092909190829003018186803b158015610ce257600080fd5b505afa158015610cf6573d6000803e3d6000fd5b505050506040513d6000823e601f3d908101601f191682016040526020811015610d1f57600080fd5b8101908080516040519392919084640100000000821115610d3f57600080fd5b908301906020820185811115610d5457600080fd5b8251640100000000811182820188101715610d6e57600080fd5b82525081516020918201929091019080838360005b83811015610d9b578181015183820152602001610d83565b50505050905090810190601f168015610dc85780820380516001836020036101000a031916815260200191505b5060408181526007546395d89b4160e01b835290519596506060956001600160a01b0390911694506395d89b41935060048083019350600092829003018186803b158015610e1557600080fd5b505afa158015610e29573d6000803e3d6000fd5b505050506040513d6000823e601f3d908101601f191682016040526020811015610e5257600080fd5b8101908080516040519392919084640100000000821115610e7257600080fd5b908301906020820185811115610e8757600080fd5b8251640100000000811182820188101715610ea157600080fd5b82525081516020918201929091019080838360005b83811015610ece578181015183820152602001610eb6565b50505050905090810190601f168015610efb5780820380516001836020036101000a031916815260200191505b506040525050509050610f2882604051806040016040528060018152602001602f60f81b81525083612245565b8051610f3c916008916020909101906126ab565b5050505050565b600a5481565b600b5481565b6000600e54600114610f9a576040805162461bcd60e51b815260206004820152600f60248201526e13dc195b94ddd85c081313d0d2d151608a1b604482015290519081900360640190fd5b6000600e81905580610faa610b08565b50600654604080516370a0823160e01b815230600482015290519395509193506000926001600160a01b03909116916370a08231916024808301926020929190829003018186803b158015610ffe57600080fd5b505afa158015611012573d6000803e3d6000fd5b505050506040513d602081101561102857600080fd5b5051600754604080516370a0823160e01b815230600482015290519293506000926001600160a01b03909216916370a0823191602480820192602092909190829003018186803b15801561107b57600080fd5b505afa15801561108f573d6000803e3d6000fd5b505050506040513d60208110156110a557600080fd5b5051905060006110be836001600160701b038716611f28565b905060006110d5836001600160701b038716611f28565b905060006110e3878761234b565b600054909150806112ba5760055460408051637cd07e4760e01b815290516000926001600160a01b031691637cd07e47916004808301926020929190829003018186803b15801561113357600080fd5b505afa158015611147573d6000803e3d6000fd5b505050506040513d602081101561115d57600080fd5b50519050336001600160a01b038216141561123857806001600160a01b03166340dc0e376040518163ffffffff1660e01b815260040160206040518083038186803b1580156111ab57600080fd5b505afa1580156111bf573d6000803e3d6000fd5b505050506040513d60208110156111d557600080fd5b5051995089158015906111ea57506000198a14155b611233576040805162461bcd60e51b81526020600482015260156024820152744261642064657369726564206c697175696469747960581b604482015290519081900360640190fd5b6112b4565b6001600160a01b0381161561128d576040805162461bcd60e51b815260206004820152601660248201527526bab9ba103737ba103430bb329036b4b3b930ba37b960511b604482015290519081900360640190fd5b6112a56103e86109e06112a08888611ec5565b61249f565b99506112b460006103e86124f1565b506112fd565b6112fa6001600160701b0389166112d18684611ec5565b816112d857fe5b046001600160701b0389166112ed8685611ec5565b816112f457fe5b0461257b565b98505b6000891161133c5760405162461bcd60e51b81526004018080602001828103825260268152602001806127656026913960400191505060405180910390fd5b6113468a8a6124f1565b61135286868a8a611f78565b811561137c57600954611378906001600160701b0380821691600160701b900416611ec5565b600c555b6040805185815260208101859052815133927f4c209b5fc8ad50758f13e2e1088ba56a560dff690a1c6fef26394f4c03821c4f928290030190a250506001600e5550949695505050505050565b60016020526000908152604090205481565b600c5481565b60046020526000908152604090205481565b600080600e5460011461143f576040805162461bcd60e51b815260206004820152600f60248201526e13dc195b94ddd85c081313d0d2d151608a1b604482015290519081900360640190fd5b6000600e8190558061144f610b08565b50600654600754604080516370a0823160e01b815230600482015290519496509294506001600160a01b039182169391169160009184916370a08231916024808301926020929190829003018186803b1580156114ab57600080fd5b505afa1580156114bf573d6000803e3d6000fd5b505050506040513d60208110156114d557600080fd5b5051604080516370a0823160e01b815230600482015290519192506000916001600160a01b038516916370a08231916024808301926020929190829003018186803b15801561152357600080fd5b505afa158015611537573d6000803e3d6000fd5b505050506040513d602081101561154d57600080fd5b50513060009081526001602052604081205491925061156c888861234b565b6000549091508061157d8487611ec5565b8161158457fe5b049a50806115928486611ec5565b8161159957fe5b04995060008b1180156115ac575060008a115b6115e75760405162461bcd60e51b815260040180806020018281038252602681526020018061273f6026913960400191505060405180910390fd5b6115f13084612593565b6115fc878d8d611d32565b611607868d8c611d32565b604080516370a0823160e01b815230600482015290516001600160a01b038916916370a08231916024808301926020929190829003018186803b15801561164d57600080fd5b505afa158015611661573d6000803e3d6000fd5b505050506040513d602081101561167757600080fd5b5051604080516370a0823160e01b815230600482015290519196506001600160a01b038816916370a0823191602480820192602092909190829003018186803b1580156116c357600080fd5b505afa1580156116d7573d6000803e3d6000fd5b505050506040513d60208110156116ed57600080fd5b505193506116fd85858b8b611f78565b811561172757600954611723906001600160701b0380821691600160701b900416611ec5565b600c555b604080518c8152602081018c905281516001600160a01b038f169233927fdccd412f0b1252819cb1fd330b93224ca42612892bb3f4f789976e6d81936496929081900390910190a35050505050505050506001600e81905550915091565b6008805460408051602060026001851615610100026000190190941693909304601f8101849004840282018401909252818152929183018282801561180b5780601f106117e05761010080835404028352916020019161180b565b820191906000526020600020905b8154815290600101906020018083116117ee57829003601f168201915b505050505081565b6000610b3f338484612197565b6103e881565b600e5460011461186f576040805162461bcd60e51b815260206004820152600f60248201526e13dc195b94ddd85c081313d0d2d151608a1b604482015290519081900360640190fd5b6000600e55600654600754600954604080516370a0823160e01b815230600482015290516001600160a01b0394851694909316926119189285928792611913926001600160701b03169185916370a0823191602480820192602092909190829003018186803b1580156118e157600080fd5b505afa1580156118f5573d6000803e3d6000fd5b505050506040513d602081101561190b57600080fd5b505190611f28565b611d32565b61198c81846119136009600e9054906101000a90046001600160701b03166001600160701b0316856001600160a01b03166370a08231306040518263ffffffff1660e01b815260040180826001600160a01b0316815260200191505060206040518083038186803b1580156118e157600080fd5b50506001600e5550565b6005546001600160a01b031681565b6007546001600160a01b031681565b428410156119fd576040805162461bcd60e51b815260206004820152601160248201527013dc195b94ddd85c0e8811561412549151607a1b604482015290519081900360640190fd5b6003546001600160a01b0380891660008181526004602090815260408083208054600180820190925582517f6e71edae12b1b97f4d1f60370fef10105fa2faae0126114a169c64845d6126c98186015280840196909652958d166060860152608085018c905260a085019590955260c08085018b90528151808603909101815260e08501825280519083012061190160f01b6101008601526101028501969096526101228085019690965280518085039096018652610142840180825286519683019690962095839052610162840180825286905260ff89166101828501526101a284018890526101c28401879052519193926101e280820193601f1981019281900390910190855afa158015611b18573d6000803e3d6000fd5b5050604051601f1901519150506001600160a01b03811615801590611b4e5750886001600160a01b0316816001600160a01b0316145b611b9f576040805162461bcd60e51b815260206004820152601b60248201527f4f70656e537761703a20494e56414c49445f5349474e41545552450000000000604482015290519081900360640190fd5b611baa898989612135565b505050505050505050565b600260209081526000928352604080842090915290825290205481565b600e54600114611c1b576040805162461bcd60e51b815260206004820152600f60248201526e13dc195b94ddd85c081313d0d2d151608a1b604482015290519081900360640190fd5b6000600e55600654604080516370a0823160e01b81523060048201529051611d2b926001600160a01b0316916370a08231916024808301926020929190829003018186803b158015611c6c57600080fd5b505afa158015611c80573d6000803e3d6000fd5b505050506040513d6020811015611c9657600080fd5b5051600754604080516370a0823160e01b815230600482015290516001600160a01b03909216916370a0823191602480820192602092909190829003018186803b158015611ce357600080fd5b505afa158015611cf7573d6000803e3d6000fd5b505050506040513d6020811015611d0d57600080fd5b50516009546001600160701b0380821691600160701b900416611f78565b6001600e55565b604080518082018252601981527f7472616e7366657228616464726573732c75696e74323536290000000000000060209182015281516001600160a01b0385811660248301526044808301869052845180840390910181526064909201845291810180516001600160e01b031663a9059cbb60e01b1781529251815160009460609489169392918291908083835b60208310611ddf5780518252601f199092019160209182019101611dc0565b6001836020036101000a0380198251168184511680821785525050505050509050019150506000604051808303816000865af19150503d8060008114611e41576040519150601f19603f3d011682016040523d82523d6000602084013e611e46565b606091505b5091509150818015611e74575080511580611e745750808060200190516020811015611e7157600080fd5b50515b610f3c576040805162461bcd60e51b815260206004820152601860248201527f4f70656e53776170205452414e534645525f4641494c45440000000000000000604482015290519081900360640190fd5b6000811580611ee057505080820282828281611edd57fe5b04145b610b43576040805162461bcd60e51b815260206004820152601460248201527364732d6d6174682d6d756c2d6f766572666c6f7760601b604482015290519081900360640190fd5b80820382811115610b43576040805162461bcd60e51b815260206004820152601560248201527464732d6d6174682d7375622d756e646572666c6f7760581b604482015290519081900360640190fd5b6001600160701b038411801590611f9657506001600160701b038311155b611fdb576040805162461bcd60e51b81526020600482015260116024820152704f70656e53776170204f564552464c4f5760781b604482015290519081900360640190fd5b60095463ffffffff42811691600160e01b9004811682039081161580159061200b57506001600160701b03841615155b801561201f57506001600160701b03831615155b1561208a578063ffffffff166120478561203886612625565b6001600160e01b031690612637565b600a80546001600160e01b03929092169290920201905563ffffffff81166120728461203887612625565b600b80546001600160e01b0392909216929092020190555b600980546dffffffffffffffffffffffffffff19166001600160701b03888116919091176dffffffffffffffffffffffffffff60701b1916600160701b8883168102919091176001600160e01b0316600160e01b63ffffffff871602179283905560408051848416815291909304909116602082015281517f1c411e9a96e071241c2f21f7726b17ae89e3cab4c78be50e062b03a9fffbbad1929181900390910190a1505050505050565b6001600160a01b03808416600081815260026020908152604080832094871680845294825291829020859055815185815291517f8c5be1e5ebec7d5bd14f71427d1e84f3dd0314c0f7b2291e5b200ac8c7c3b9259281900390910190a3505050565b6001600160a01b0383166000908152600160205260409020546121ba9082611f28565b6001600160a01b0380851660009081526001602052604080822093909355908416815220546121e9908261265c565b6001600160a01b0380841660008181526001602090815260409182902094909455805185815290519193928716927fddf252ad1be2c89b69c2b068fc378daa952ba7f163c4a11628f55a4df523b3ef92918290030190a3505050565b60608383836040516020018084805190602001908083835b6020831061227c5780518252601f19909201916020918201910161225d565b51815160209384036101000a600019018019909216911617905286519190930192860191508083835b602083106122c45780518252601f1990920191602091820191016122a5565b51815160209384036101000a600019018019909216911617905285519190930192850191508083835b6020831061230c5780518252601f1990920191602091820191016122ed565b6001836020036101000a038019825116818451168082178552505050505050905001935050505060405160208183030381529060405290509392505050565b600080600560009054906101000a90046001600160a01b03166001600160a01b031663017e7e586040518163ffffffff1660e01b815260040160206040518083038186803b15801561239c57600080fd5b505afa1580156123b0573d6000803e3d6000fd5b505050506040513d60208110156123c657600080fd5b5051600c546001600160a01b03821615801594509192509061248b5780156124865760006124036112a06001600160701b03888116908816611ec5565b905060006124108361249f565b9050808211156124835760006124326124298484611f28565b60005490611ec5565b9050600061244b83612445866005611ec5565b9061265c565b9050600081838161245857fe5b049050801561247f5761247f8761247a600d5484611ec590919063ffffffff16565b6124f1565b5050505b50505b612497565b8015612497576000600c555b505092915050565b600060038211156124e2575080600160028204015b818110156124dc578091506002818285816124cb57fe5b0401816124d457fe5b0490506124b4565b506124ec565b81156124ec575060015b919050565b6000546124fe908261265c565b60009081556001600160a01b038316815260016020526040902054612523908261265c565b6001600160a01b03831660008181526001602090815260408083209490945583518581529351929391927fddf252ad1be2c89b69c2b068fc378daa952ba7f163c4a11628f55a4df523b3ef9281900390910190a35050565b600081831061258a578161258c565b825b9392505050565b6001600160a01b0382166000908152600160205260409020546125b69082611f28565b6001600160a01b038316600090815260016020526040812091909155546125dd9082611f28565b60009081556040805183815290516001600160a01b038516917fddf252ad1be2c89b69c2b068fc378daa952ba7f163c4a11628f55a4df523b3ef919081900360200190a35050565b6001600160701b0316600160701b0290565b60006001600160701b0382166001600160e01b0384168161265457fe5b049392505050565b80820182811015610b43576040805162461bcd60e51b815260206004820152601460248201527364732d6d6174682d6164642d6f766572666c6f7760601b604482015290519081900360640190fd5b828054600181600116156101000203166002900490600052602060002090601f016020900481019282601f106126ec57805160ff1916838001178555612719565b82800160010185558215612719579182015b828111156127195782518255916020019190600101906126fe565b50612725929150612729565b5090565b5b80821115612725576000815560010161272a56fe4f70656e5377617020494e53554646494349454e545f4c49515549444954595f4255524e45444f70656e5377617020494e53554646494349454e545f4c49515549444954595f4d494e5445444f70656e5377617020494e53554646494349454e545f494e5055545f414d4f554e544f70656e5377617020494e53554646494349454e545f4f55545055545f414d4f554e54a26469706673582212201e90131fc3aa97bc05eec1eb561b1edd50c23d35ebb5420ade1be9ef43db5db964736f6c634300060c0033a2646970667358221220a08634024ba49b888cb4ccb7555aa481acc13d9592d0965867530143fe8015dc64736f6c634300060c0033",
  "immutableReferences": {},
  "source": "// SPDX-License-Identifier: MIT\n\npragma solidity 0.6.12;\n\nimport \"../uniswapv2/UniswapV2Factory.sol\";\n\ncontract SushiSwapFactoryMock is UniswapV2Factory {\n    constructor(address _feeToSetter) public UniswapV2Factory(_feeToSetter) {}\n}",
  "sourcePath": "/home/alexandre/dev/sushiswap/contracts/mocks/SushiSwapFactoryMock.sol",
  "compiler": {
    "name": "solc",
    "version": "0.6.12+commit.27d51765.Emscripten.clang"
  },
  "schemaVersion": "3.3.4",
  "updatedAt": "2021-04-28T12:52:38.877Z",
  "devdoc": {
    "kind": "dev",
    "methods": {},
    "version": 1
  },
  "userdoc": {
    "kind": "user",
    "methods": {},
    "version": 1
  }
}