{
  "contractName": "SushiMaker",
  "abi": [
    {
      "inputs": [
        {
          "internalType": "address",
          "name": "_factory",
          "type": "address"
        },
        {
          "internalType": "address",
          "name": "_bar",
          "type": "address"
        },
        {
          "internalType": "address",
          "name": "_sushi",
          "type": "address"
        },
        {
          "internalType": "address",
          "name": "_weth",
          "type": "address"
        }
      ],
      "stateMutability": "nonpayable",
      "type": "constructor"
    },
    {
      "anonymous": false,
      "inputs": [
        {
          "indexed": true,
          "internalType": "address",
          "name": "token",
          "type": "address"
        },
        {
          "indexed": true,
          "internalType": "address",
          "name": "bridge",
          "type": "address"
        }
      ],
      "name": "LogBridgeSet",
      "type": "event"
    },
    {
      "anonymous": false,
      "inputs": [
        {
          "indexed": true,
          "internalType": "address",
          "name": "server",
          "type": "address"
        },
        {
          "indexed": true,
          "internalType": "address",
          "name": "token0",
          "type": "address"
        },
        {
          "indexed": true,
          "internalType": "address",
          "name": "token1",
          "type": "address"
        },
        {
          "indexed": false,
          "internalType": "uint256",
          "name": "amount0",
          "type": "uint256"
        },
        {
          "indexed": false,
          "internalType": "uint256",
          "name": "amount1",
          "type": "uint256"
        },
        {
          "indexed": false,
          "internalType": "uint256",
          "name": "amountSUSHI",
          "type": "uint256"
        }
      ],
      "name": "LogConvert",
      "type": "event"
    },
    {
      "anonymous": false,
      "inputs": [
        {
          "indexed": true,
          "internalType": "address",
          "name": "previousOwner",
          "type": "address"
        },
        {
          "indexed": true,
          "internalType": "address",
          "name": "newOwner",
          "type": "address"
        }
      ],
      "name": "OwnershipTransferred",
      "type": "event"
    },
    {
      "inputs": [],
      "name": "bar",
      "outputs": [
        {
          "internalType": "address",
          "name": "",
          "type": "address"
        }
      ],
      "stateMutability": "view",
      "type": "function"
    },
    {
      "inputs": [],
      "name": "claimOwnership",
      "outputs": [],
      "stateMutability": "nonpayable",
      "type": "function"
    },
    {
      "inputs": [],
      "name": "factory",
      "outputs": [
        {
          "internalType": "contract IUniswapV2Factory",
          "name": "",
          "type": "address"
        }
      ],
      "stateMutability": "view",
      "type": "function"
    },
    {
      "inputs": [],
      "name": "owner",
      "outputs": [
        {
          "internalType": "address",
          "name": "",
          "type": "address"
        }
      ],
      "stateMutability": "view",
      "type": "function"
    },
    {
      "inputs": [],
      "name": "pendingOwner",
      "outputs": [
        {
          "internalType": "address",
          "name": "",
          "type": "address"
        }
      ],
      "stateMutability": "view",
      "type": "function"
    },
    {
      "inputs": [
        {
          "internalType": "address",
          "name": "newOwner",
          "type": "address"
        },
        {
          "internalType": "bool",
          "name": "direct",
          "type": "bool"
        },
        {
          "internalType": "bool",
          "name": "renounce",
          "type": "bool"
        }
      ],
      "name": "transferOwnership",
      "outputs": [],
      "stateMutability": "nonpayable",
      "type": "function"
    },
    {
      "inputs": [
        {
          "internalType": "address",
          "name": "token",
          "type": "address"
        }
      ],
      "name": "bridgeFor",
      "outputs": [
        {
          "internalType": "address",
          "name": "bridge",
          "type": "address"
        }
      ],
      "stateMutability": "view",
      "type": "function"
    },
    {
      "inputs": [
        {
          "internalType": "address",
          "name": "token",
          "type": "address"
        },
        {
          "internalType": "address",
          "name": "bridge",
          "type": "address"
        }
      ],
      "name": "setBridge",
      "outputs": [],
      "stateMutability": "nonpayable",
      "type": "function"
    },
    {
      "inputs": [
        {
          "internalType": "address",
          "name": "token0",
          "type": "address"
        },
        {
          "internalType": "address",
          "name": "token1",
          "type": "address"
        }
      ],
      "name": "convert",
      "outputs": [],
      "stateMutability": "nonpayable",
      "type": "function"
    },
    {
      "inputs": [
        {
          "internalType": "address[]",
          "name": "token0",
          "type": "address[]"
        },
        {
          "internalType": "address[]",
          "name": "token1",
          "type": "address[]"
        }
      ],
      "name": "convertMultiple",
      "outputs": [],
      "stateMutability": "nonpayable",
      "type": "function"
    }
  ],
  "bytecode": "0x61010060405234801561001157600080fd5b506040516117bc3803806117bc8339818101604052608081101561003457600080fd5b5080516020820151604080840151606090940151600080546001600160a01b0319163390811782559251949593949192917f8be0079c531659141344cd1fd0a4f28419497f9722a3daafe3b4186f6b6457e0908290a36001600160601b0319606094851b811660805292841b831660a05290831b821660c05290911b1660e05260805160601c60a05160601c60c05160601c60e05160601c611659610163600039806105be52806106dc5280610ce45280610d215280610ec65280610f035280610f2c5280610f595280610f965280610fbf5250806105815280610c4e5280610c935280610d815280610dc65280610e2a5280610e6f52806110f25250806107985280610cb55280610de85280610e91528061111452508061076552806107be528061114452506116596000f3fe608060405234801561001057600080fd5b506004361061009e5760003560e01c8063a761a93911610066578063a761a939146101f7578063bd1b820c1461021d578063c45a01551461024b578063e30c397814610253578063febb0f7e1461025b5761009e565b8063078dfbe7146100a3578063303e6aa4146100db5780634e71e0c81461019d5780638da5cb5b146101a55780639d22ae8c146101c9575b600080fd5b6100d9600480360360608110156100b957600080fd5b506001600160a01b03813516906020810135151590604001351515610263565b005b6100d9600480360360408110156100f157600080fd5b81019060208101813564010000000081111561010c57600080fd5b82018360208201111561011e57600080fd5b8035906020019184602083028401116401000000008311171561014057600080fd5b91939092909160208101903564010000000081111561015e57600080fd5b82018360208201111561017057600080fd5b8035906020019184602083028401116401000000008311171561019257600080fd5b50909250905061039f565b6100d961044f565b6101ad610511565b604080516001600160a01b039092168252519081900360200190f35b6100d9600480360360408110156101df57600080fd5b506001600160a01b0381358116916020013516610520565b6101ad6004803603602081101561020d57600080fd5b50356001600160a01b03166106b9565b6100d96004803603604081101561023357600080fd5b506001600160a01b0381358116916020013516610701565b6101ad610763565b6101ad610787565b6101ad610796565b6000546001600160a01b031633146102c2576040805162461bcd60e51b815260206004820181905260248201527f4f776e61626c653a2063616c6c6572206973206e6f7420746865206f776e6572604482015290519081900360640190fd5b811561037e576001600160a01b0383161515806102dc5750805b610325576040805162461bcd60e51b81526020600482015260156024820152744f776e61626c653a207a65726f206164647265737360581b604482015290519081900360640190fd5b600080546040516001600160a01b03808716939216917f8be0079c531659141344cd1fd0a4f28419497f9722a3daafe3b4186f6b6457e091a3600080546001600160a01b0319166001600160a01b03851617905561039a565b600180546001600160a01b0319166001600160a01b0385161790555b505050565b3332146103f3576040805162461bcd60e51b815260206004820152601c60248201527f4f70656e53776170204d616b65723a206d7573742075736520454f4100000000604482015290519081900360640190fd5b8260005b818110156104475761043f86868381811061040e57fe5b905060200201356001600160a01b031685858481811061042a57fe5b905060200201356001600160a01b03166107ba565b6001016103f7565b505050505050565b6001546001600160a01b03163381146104af576040805162461bcd60e51b815260206004820181905260248201527f4f776e61626c653a2063616c6c657220213d2070656e64696e67206f776e6572604482015290519081900360640190fd5b600080546040516001600160a01b03808516939216917f8be0079c531659141344cd1fd0a4f28419497f9722a3daafe3b4186f6b6457e091a3600080546001600160a01b039092166001600160a01b0319928316179055600180549091169055565b6000546001600160a01b031681565b6000546001600160a01b0316331461057f576040805162461bcd60e51b815260206004820181905260248201527f4f776e61626c653a2063616c6c6572206973206e6f7420746865206f776e6572604482015290519081900360640190fd5b7f00000000000000000000000000000000000000000000000000000000000000006001600160a01b0316826001600160a01b0316141580156105f357507f00000000000000000000000000000000000000000000000000000000000000006001600160a01b0316826001600160a01b031614155b80156106115750806001600160a01b0316826001600160a01b031614155b610662576040805162461bcd60e51b815260206004820152601e60248201527f4f70656e53776170204d616b65723a20496e76616c6964206272696467650000604482015290519081900360640190fd5b6001600160a01b0382811660008181526002602052604080822080546001600160a01b0319169486169485179055517f2e103aa707acc565f9a1547341914802b2bfe977fd79c595209f248ae4b006139190a35050565b6001600160a01b0380821660009081526002602052604090205416806106fc57507f00000000000000000000000000000000000000000000000000000000000000005b919050565b333214610755576040805162461bcd60e51b815260206004820152601c60248201527f4f70656e53776170204d616b65723a206d7573742075736520454f4100000000604482015290519081900360640190fd5b61075f82826107ba565b5050565b7f000000000000000000000000000000000000000000000000000000000000000081565b6001546001600160a01b031681565b7f000000000000000000000000000000000000000000000000000000000000000081565b60007f00000000000000000000000000000000000000000000000000000000000000006001600160a01b031663e6a4390584846040518363ffffffff1660e01b815260040180836001600160a01b03168152602001826001600160a01b031681526020019250505060206040518083038186803b15801561083a57600080fd5b505afa15801561084e573d6000803e3d6000fd5b505050506040513d602081101561086457600080fd5b505190506001600160a01b0381166108c3576040805162461bcd60e51b815260206004820152601c60248201527f4f70656e53776170204d616b65723a20496e76616c6964207061697200000000604482015290519081900360640190fd5b61095181826001600160a01b03166370a08231306040518263ffffffff1660e01b815260040180826001600160a01b0316815260200191505060206040518083038186803b15801561091457600080fd5b505afa158015610928573d6000803e3d6000fd5b505050506040513d602081101561093e57600080fd5b50516001600160a01b0384169190610ab8565b600080826001600160a01b03166389afcb44306040518263ffffffff1660e01b815260040180826001600160a01b031681526020019150506040805180830381600087803b1580156109a257600080fd5b505af11580156109b6573d6000803e3d6000fd5b505050506040513d60408110156109cc57600080fd5b50805160209182015160408051630dfe168160e01b815290519295509093506001600160a01b03861692630dfe168192600480840193829003018186803b158015610a1657600080fd5b505afa158015610a2a573d6000803e3d6000fd5b505050506040513d6020811015610a4057600080fd5b50516001600160a01b03868116911614610a5657905b6001600160a01b03808516908616337fd06b1d7ed79b664d17472c6f6997b929f1abe463ccccb4e5b6a0038f2f730c158585610a948b8b8484610c22565b60408051938452602084019290925282820152519081900360600190a45050505050565b604080516001600160a01b038481166024830152604480830185905283518084039091018152606490920183526020820180516001600160e01b031663a9059cbb60e01b178152925182516000946060949389169392918291908083835b60208310610b355780518252601f199092019160209182019101610b16565b6001836020036101000a0380198251168184511680821785525050505050509050019150506000604051808303816000865af19150503d8060008114610b97576040519150601f19603f3d011682016040523d82523d6000602084013e610b9c565b606091505b5091509150818015610bca575080511580610bca5750808060200190516020811015610bc757600080fd5b50515b610c1b576040805162461bcd60e51b815260206004820152601a60248201527f5361666545524332303a205472616e73666572206661696c6564000000000000604482015290519081900360640190fd5b5050505050565b6000836001600160a01b0316856001600160a01b03161415610d7f576000610c4a8484611093565b90507f00000000000000000000000000000000000000000000000000000000000000006001600160a01b0316866001600160a01b03161415610ce257610cda6001600160a01b037f0000000000000000000000000000000000000000000000000000000000000000167f000000000000000000000000000000000000000000000000000000000000000083610ab8565b809150610d79565b7f00000000000000000000000000000000000000000000000000000000000000006001600160a01b0316866001600160a01b03161415610d4d57610d467f0000000000000000000000000000000000000000000000000000000000000000826110ea565b9150610d79565b6000610d58876106b9565b9050610d668782843061113f565b9150610d758182846000610c22565b9250505b5061108b565b7f00000000000000000000000000000000000000000000000000000000000000006001600160a01b0316856001600160a01b03161415610e2857610e0d6001600160a01b037f0000000000000000000000000000000000000000000000000000000000000000167f000000000000000000000000000000000000000000000000000000000000000085610ab8565b610e2183610e1b86856110ea565b90611093565b905061108b565b7f00000000000000000000000000000000000000000000000000000000000000006001600160a01b0316846001600160a01b03161415610ec457610eb66001600160a01b037f0000000000000000000000000000000000000000000000000000000000000000167f000000000000000000000000000000000000000000000000000000000000000084610ab8565b610e2182610e1b87866110ea565b7f00000000000000000000000000000000000000000000000000000000000000006001600160a01b0316856001600160a01b03161415610f5757610e217f0000000000000000000000000000000000000000000000000000000000000000610f5285610e1b887f0000000000000000000000000000000000000000000000000000000000000000883061113f565b6110ea565b7f00000000000000000000000000000000000000000000000000000000000000006001600160a01b0316846001600160a01b03161415610fe557610e217f0000000000000000000000000000000000000000000000000000000000000000610f5284610e1b897f0000000000000000000000000000000000000000000000000000000000000000893061113f565b6000610ff0866106b9565b90506000610ffd866106b9565b9050856001600160a01b0316826001600160a01b0316141561103757611030828761102a8a868a3061113f565b87610c22565b9250611088565b866001600160a01b0316816001600160a01b03161415611068576110308782876110638a868a3061113f565b610c22565b61108582826110798a868a3061113f565b6110638a868a3061113f565b92505b50505b949350505050565b818101818110156110e4576040805162461bcd60e51b8152602060048201526016602482015275536166654d6174683a20416464204f766572666c6f7760501b604482015290519081900360640190fd5b92915050565b6000611138837f0000000000000000000000000000000000000000000000000000000000000000847f000000000000000000000000000000000000000000000000000000000000000061113f565b9392505050565b6000807f00000000000000000000000000000000000000000000000000000000000000006001600160a01b031663e6a4390587876040518363ffffffff1660e01b815260040180836001600160a01b03168152602001826001600160a01b031681526020019250505060206040518083038186803b1580156111c057600080fd5b505afa1580156111d4573d6000803e3d6000fd5b505050506040513d60208110156111ea57600080fd5b505190506001600160a01b038116611249576040805162461bcd60e51b815260206004820152601e60248201527f4f70656e53776170204d616b65723a2043616e6e6f7420636f6e766572740000604482015290519081900360640190fd5b600080826001600160a01b0316630902f1ac6040518163ffffffff1660e01b815260040160606040518083038186803b15801561128557600080fd5b505afa158015611299573d6000803e3d6000fd5b505050506040513d60608110156112af57600080fd5b5080516020909101516dffffffffffffffffffffffffffff918216935016905060006112dd876103e56115be565b9050836001600160a01b0316630dfe16816040518163ffffffff1660e01b815260040160206040518083038186803b15801561131857600080fd5b505afa15801561132c573d6000803e3d6000fd5b505050506040513d602081101561134257600080fd5b50516001600160a01b038a8116911614156114895761136781610e1b856103e86115be565b61137d836113778a6103e56115be565b906115be565b8161138457fe5b04945061139b6001600160a01b038a168589610ab8565b604080516000808252602082019283905263022c0d9f60e01b835260248201818152604483018990526001600160a01b038a81166064850152608060848501908152845160a48601819052918a169563022c0d9f958c948e9491939092909160c4850191908083838b5b8381101561141d578181015183820152602001611405565b50505050905090810190601f16801561144a5780820380516001836020036101000a031916815260200191505b5095505050505050600060405180830381600087803b15801561146c57600080fd5b505af1158015611480573d6000803e3d6000fd5b505050506115b2565b61149981610e1b846103e86115be565b6114a9846113778a6103e56115be565b816114b057fe5b0494506114c76001600160a01b038a168589610ab8565b604080516000808252602082019283905263022c0d9f60e01b835260248201888152604483018290526001600160a01b038a81166064850152608060848501908152845160a48601819052918a169563022c0d9f958c95948e9491939092909160c4850191908083838a5b8381101561154a578181015183820152602001611532565b50505050905090810190601f1680156115775780820380516001836020036101000a031916815260200191505b5095505050505050600060405180830381600087803b15801561159957600080fd5b505af11580156115ad573d6000803e3d6000fd5b505050505b50505050949350505050565b60008115806115d9575050808202828282816115d657fe5b04145b6110e4576040805162461bcd60e51b8152602060048201526016602482015275536166654d6174683a204d756c204f766572666c6f7760501b604482015290519081900360640190fdfea2646970667358221220745e230eed085475e3a0d3741ba7acb0d20b6c9e6964c1b48c05f7a38d56951264736f6c634300060c0033",
  "immutableReferences": {
    "3156": [
      {
        "length": 32,
        "start": 1893
      },
      {
        "length": 32,
        "start": 1982
      },
      {
        "length": 32,
        "start": 4420
      }
    ],
    "3158": [
      {
        "length": 32,
        "start": 1944
      },
      {
        "length": 32,
        "start": 3253
      },
      {
        "length": 32,
        "start": 3560
      },
      {
        "length": 32,
        "start": 3729
      },
      {
        "length": 32,
        "start": 4372
      }
    ],
    "3160": [
      {
        "length": 32,
        "start": 1409
      },
      {
        "length": 32,
        "start": 3150
      },
      {
        "length": 32,
        "start": 3219
      },
      {
        "length": 32,
        "start": 3457
      },
      {
        "length": 32,
        "start": 3526
      },
      {
        "length": 32,
        "start": 3626
      },
      {
        "length": 32,
        "start": 3695
      },
      {
        "length": 32,
        "start": 4338
      }
    ],
    "3162": [
      {
        "length": 32,
        "start": 1470
      },
      {
        "length": 32,
        "start": 1756
      },
      {
        "length": 32,
        "start": 3300
      },
      {
        "length": 32,
        "start": 3361
      },
      {
        "length": 32,
        "start": 3782
      },
      {
        "length": 32,
        "start": 3843
      },
      {
        "length": 32,
        "start": 3884
      },
      {
        "length": 32,
        "start": 3929
      },
      {
        "length": 32,
        "start": 3990
      },
      {
        "length": 32,
        "start": 4031
      }
    ]
  },
  "source": "// SPDX-License-Identifier: MIT\r\n// P1 - P3: OK\r\npragma solidity 0.6.12;\r\nimport \"./libraries/SafeMath.sol\";\r\nimport \"./libraries/SafeERC20.sol\";\r\n\r\nimport \"./uniswapv2/interfaces/IUniswapV2ERC20.sol\";\r\nimport \"./uniswapv2/interfaces/IUniswapV2Pair.sol\";\r\nimport \"./uniswapv2/interfaces/IUniswapV2Factory.sol\";\r\n\r\nimport \"./Ownable.sol\";\r\n\r\n// SushiMaker is MasterChef's left hand and kinda a wizard. He can cook up Sushi from pretty much anything!\r\n// This contract handles \"serving up\" rewards for xSushi holders by trading tokens collected from fees for Sushi.\r\n\r\n// T1 - T4: OK\r\ncontract SushiMaker is Ownable {\r\n    using SafeMath for uint256;\r\n    using SafeERC20 for IERC20;\r\n\r\n    // V1 - V5: OK\r\n    IUniswapV2Factory public immutable factory;\r\n    //0xC0AEe478e3658e2610c5F7A4A2E1777cE9e4f2Ac\r\n    // V1 - V5: OK\r\n    address public immutable bar;\r\n    //0x8798249c2E607446EfB7Ad49eC89dD1865Ff4272\r\n    // V1 - V5: OK\r\n    address private immutable sushi;\r\n    //0x6B3595068778DD592e39A122f4f5a5cF09C90fE2\r\n    // V1 - V5: OK\r\n    address private immutable weth;\r\n    //0xC02aaA39b223FE8D0A0e5C4F27eAD9083C756Cc2\r\n\r\n    // V1 - V5: OK\r\n    mapping(address => address) internal _bridges;\r\n\r\n    // E1: OK\r\n    event LogBridgeSet(address indexed token, address indexed bridge);\r\n    // E1: OK\r\n    event LogConvert(address indexed server, address indexed token0, address indexed token1, uint256 amount0, uint256 amount1, uint256 amountSUSHI);\r\n\r\n\r\n    constructor (address _factory, address _bar, address _sushi, address _weth) public {\r\n       factory = IUniswapV2Factory(_factory);\r\n       bar = _bar;\r\n       sushi = _sushi;\r\n       weth = _weth;\r\n    }\r\n\r\n    // F1 - F10: OK\r\n    // C1 - C24: OK\r\n    function bridgeFor(address token) public view returns (address bridge) {\r\n        bridge = _bridges[token];\r\n        if (bridge == address(0)) {\r\n            bridge = weth;\r\n        }\r\n    }\r\n\r\n    // F1 - F10: OK\r\n    // C1 - C24: OK\r\n    function setBridge(address token, address bridge) external onlyOwner {\r\n        // Checks\r\n        require(token != sushi && token != weth && token != bridge, \"OpenSwap Maker: Invalid bridge\");\r\n\r\n        // Effects\r\n        _bridges[token] = bridge;\r\n        emit LogBridgeSet(token, bridge);\r\n    }\r\n\r\n    // M1 - M5: OK\r\n    // C1 - C24: OK\r\n    // C6: It's not a fool proof solution, but it prevents flash loans, so here it's ok to use tx.origin\r\n    modifier onlyEOA() {\r\n        // Try to make flash-loan exploit harder to do by only allowing externally owned addresses.\r\n        require(msg.sender == tx.origin, \"OpenSwap Maker: must use EOA\");\r\n        _;\r\n    }\r\n\r\n    // F1 - F10: OK\r\n    // F3: _convert is separate to save gas by only checking the 'onlyEOA' modifier once in case of convertMultiple\r\n    // F6: There is an exploit to add lots of SUSHI to the bar, run convert, then remove the SUSHI again.\r\n    //     As the size of the SushiBar has grown, this requires large amounts of funds and isn't super profitable anymore\r\n    //     The onlyEOA modifier prevents this being done with a flash loan.\r\n    // C1 - C24: OK\r\n    function convert(address token0, address token1) external onlyEOA() {\r\n        _convert(token0, token1);\r\n    }\r\n\r\n    // F1 - F10: OK, see convert\r\n    // C1 - C24: OK\r\n    // C3: Loop is under control of the caller\r\n    function convertMultiple(address[] calldata token0, address[] calldata token1) external onlyEOA() {\r\n        // TODO: This can be optimized a fair bit, but this is safer and simpler for now\r\n        uint256 len = token0.length;\r\n        for(uint256 i=0; i < len; i++) {\r\n            _convert(token0[i], token1[i]);\r\n        }\r\n    }\r\n\r\n    // F1 - F10: OK\r\n    // C1- C24: OK\r\n    function _convert(address token0, address token1) internal {\r\n        // Interactions\r\n        // S1 - S4: OK\r\n        IUniswapV2Pair pair = IUniswapV2Pair(factory.getPair(token0, token1));\r\n        require(address(pair) != address(0), \"OpenSwap Maker: Invalid pair\");\r\n        // balanceOf: S1 - S4: OK\r\n        // transfer: X1 - X5: OK\r\n        IERC20(address(pair)).safeTransfer(address(pair), pair.balanceOf(address(this)));\r\n        // X1 - X5: OK\r\n        (uint256 amount0, uint256 amount1) = pair.burn(address(this));\r\n        if (token0 != pair.token0()) {\r\n            (amount0, amount1) = (amount1, amount0);\r\n        }\r\n        emit LogConvert(msg.sender, token0, token1, amount0, amount1, _convertStep(token0, token1, amount0, amount1));\r\n    }\r\n\r\n    // F1 - F10: OK\r\n    // C1 - C24: OK\r\n    // All safeTransfer, _swap, _toSUSHI, _convertStep: X1 - X5: OK\r\n    function _convertStep(address token0, address token1, uint256 amount0, uint256 amount1) internal returns(uint256 sushiOut) {\r\n        // Interactions\r\n        if (token0 == token1) {\r\n            uint256 amount = amount0.add(amount1);\r\n            if (token0 == sushi) {\r\n                IERC20(sushi).safeTransfer(bar, amount);\r\n                sushiOut = amount;\r\n            } else if (token0 == weth) {\r\n                sushiOut = _toSUSHI(weth, amount);\r\n            } else {\r\n                address bridge = bridgeFor(token0);\r\n                amount = _swap(token0, bridge, amount, address(this));\r\n                sushiOut = _convertStep(bridge, bridge, amount, 0);\r\n            }\r\n        } else if (token0 == sushi) { // eg. SUSHI - ETH\r\n            IERC20(sushi).safeTransfer(bar, amount0);\r\n            sushiOut = _toSUSHI(token1, amount1).add(amount0);\r\n        } else if (token1 == sushi) { // eg. USDT - SUSHI\r\n            IERC20(sushi).safeTransfer(bar, amount1);\r\n            sushiOut = _toSUSHI(token0, amount0).add(amount1);\r\n        } else if (token0 == weth) { // eg. ETH - USDC\r\n            sushiOut = _toSUSHI(weth, _swap(token1, weth, amount1, address(this)).add(amount0));\r\n        } else if (token1 == weth) { // eg. USDT - ETH\r\n            sushiOut = _toSUSHI(weth, _swap(token0, weth, amount0, address(this)).add(amount1));\r\n        } else { // eg. MIC - USDT\r\n            address bridge0 = bridgeFor(token0);\r\n            address bridge1 = bridgeFor(token1);\r\n            if (bridge0 == token1) { // eg. MIC - USDT - and bridgeFor(MIC) = USDT\r\n                sushiOut = _convertStep(bridge0, token1,\r\n                    _swap(token0, bridge0, amount0, address(this)),\r\n                    amount1\r\n                );\r\n            } else if (bridge1 == token0) { // eg. WBTC - DSD - and bridgeFor(DSD) = WBTC\r\n                sushiOut = _convertStep(token0, bridge1,\r\n                    amount0,\r\n                    _swap(token1, bridge1, amount1, address(this))\r\n                );\r\n            } else {\r\n                sushiOut = _convertStep(bridge0, bridge1, // eg. USDT - DSD - and bridgeFor(DSD) = WBTC\r\n                    _swap(token0, bridge0, amount0, address(this)),\r\n                    _swap(token1, bridge1, amount1, address(this))\r\n                );\r\n            }\r\n        }\r\n    }\r\n\r\n    // F1 - F10: OK\r\n    // C1 - C24: OK\r\n    // All safeTransfer, swap: X1 - X5: OK\r\n    function _swap(address fromToken, address toToken, uint256 amountIn, address to) internal returns (uint256 amountOut) {\r\n        // Checks\r\n        // X1 - X5: OK\r\n        IUniswapV2Pair pair = IUniswapV2Pair(factory.getPair(fromToken, toToken));\r\n        require(address(pair) != address(0), \"OpenSwap Maker: Cannot convert\");\r\n\r\n        // Interactions\r\n        // X1 - X5: OK\r\n        (uint256 reserve0, uint256 reserve1,) = pair.getReserves();\r\n        uint256 amountInWithFee = amountIn.mul(997);\r\n        if (fromToken == pair.token0()) {\r\n            amountOut = amountIn.mul(997).mul(reserve1) / reserve0.mul(1000).add(amountInWithFee);\r\n            IERC20(fromToken).safeTransfer(address(pair), amountIn);\r\n            pair.swap(0, amountOut, to, new bytes(0));\r\n            // TODO: Add maximum slippage?\r\n        } else {\r\n            amountOut = amountIn.mul(997).mul(reserve0) / reserve1.mul(1000).add(amountInWithFee);\r\n            IERC20(fromToken).safeTransfer(address(pair), amountIn);\r\n            pair.swap(amountOut, 0, to, new bytes(0));\r\n            // TODO: Add maximum slippage?\r\n        }\r\n    }\r\n\r\n    // F1 - F10: OK\r\n    // C1 - C24: OK\r\n    function _toSUSHI(address token, uint256 amountIn) internal returns(uint256 amountOut) {\r\n        // X1 - X5: OK\r\n        amountOut = _swap(token, sushi, amountIn, bar);\r\n    }\r\n}\r\n",
  "sourcePath": "/home/alexandre/dev/sushiswap/contracts/SushiMaker.sol",
  "compiler": {
    "name": "solc",
    "version": "0.6.12+commit.27d51765.Emscripten.clang"
  },
  "schemaVersion": "3.3.4",
  "updatedAt": "2021-04-28T12:52:38.766Z",
  "devdoc": {
    "kind": "dev",
    "methods": {},
    "version": 1
  },
  "userdoc": {
    "kind": "user",
    "methods": {},
    "version": 1
  }
}