{
  "contractName": "TokenLock",
  "abi": [
    {
      "inputs": [],
      "stateMutability": "nonpayable",
      "type": "constructor"
    },
    {
      "anonymous": false,
      "inputs": [
        {
          "indexed": true,
          "internalType": "address",
          "name": "owner",
          "type": "address"
        },
        {
          "indexed": true,
          "internalType": "address",
          "name": "spender",
          "type": "address"
        },
        {
          "indexed": false,
          "internalType": "uint256",
          "name": "value",
          "type": "uint256"
        }
      ],
      "name": "Approval",
      "type": "event"
    },
    {
      "anonymous": false,
      "inputs": [
        {
          "indexed": true,
          "internalType": "address",
          "name": "previousOwner",
          "type": "address"
        },
        {
          "indexed": true,
          "internalType": "address",
          "name": "newOwner",
          "type": "address"
        }
      ],
      "name": "OwnershipTransferred",
      "type": "event"
    },
    {
      "anonymous": false,
      "inputs": [
        {
          "indexed": true,
          "internalType": "address",
          "name": "from",
          "type": "address"
        },
        {
          "indexed": true,
          "internalType": "address",
          "name": "to",
          "type": "address"
        },
        {
          "indexed": false,
          "internalType": "uint256",
          "name": "value",
          "type": "uint256"
        }
      ],
      "name": "Transfer",
      "type": "event"
    },
    {
      "inputs": [],
      "name": "Dev",
      "outputs": [
        {
          "internalType": "address",
          "name": "",
          "type": "address"
        }
      ],
      "stateMutability": "view",
      "type": "function",
      "constant": true
    },
    {
      "inputs": [],
      "name": "OpenSwapToken",
      "outputs": [
        {
          "internalType": "contract ERC20",
          "name": "",
          "type": "address"
        }
      ],
      "stateMutability": "view",
      "type": "function",
      "constant": true
    },
    {
      "inputs": [
        {
          "internalType": "address",
          "name": "owner",
          "type": "address"
        },
        {
          "internalType": "address",
          "name": "spender",
          "type": "address"
        }
      ],
      "name": "allowance",
      "outputs": [
        {
          "internalType": "uint256",
          "name": "",
          "type": "uint256"
        }
      ],
      "stateMutability": "view",
      "type": "function",
      "constant": true
    },
    {
      "inputs": [
        {
          "internalType": "address",
          "name": "spender",
          "type": "address"
        },
        {
          "internalType": "uint256",
          "name": "amount",
          "type": "uint256"
        }
      ],
      "name": "approve",
      "outputs": [
        {
          "internalType": "bool",
          "name": "",
          "type": "bool"
        }
      ],
      "stateMutability": "nonpayable",
      "type": "function"
    },
    {
      "inputs": [
        {
          "internalType": "address",
          "name": "account",
          "type": "address"
        }
      ],
      "name": "balanceOf",
      "outputs": [
        {
          "internalType": "uint256",
          "name": "",
          "type": "uint256"
        }
      ],
      "stateMutability": "view",
      "type": "function",
      "constant": true
    },
    {
      "inputs": [],
      "name": "claimOwnership",
      "outputs": [],
      "stateMutability": "nonpayable",
      "type": "function"
    },
    {
      "inputs": [],
      "name": "decimals",
      "outputs": [
        {
          "internalType": "uint8",
          "name": "",
          "type": "uint8"
        }
      ],
      "stateMutability": "view",
      "type": "function",
      "constant": true
    },
    {
      "inputs": [
        {
          "internalType": "address",
          "name": "spender",
          "type": "address"
        },
        {
          "internalType": "uint256",
          "name": "subtractedValue",
          "type": "uint256"
        }
      ],
      "name": "decreaseAllowance",
      "outputs": [
        {
          "internalType": "bool",
          "name": "",
          "type": "bool"
        }
      ],
      "stateMutability": "nonpayable",
      "type": "function"
    },
    {
      "inputs": [
        {
          "internalType": "address",
          "name": "spender",
          "type": "address"
        },
        {
          "internalType": "uint256",
          "name": "addedValue",
          "type": "uint256"
        }
      ],
      "name": "increaseAllowance",
      "outputs": [
        {
          "internalType": "bool",
          "name": "",
          "type": "bool"
        }
      ],
      "stateMutability": "nonpayable",
      "type": "function"
    },
    {
      "inputs": [],
      "name": "lastPaymentBlocktime",
      "outputs": [
        {
          "internalType": "uint256",
          "name": "",
          "type": "uint256"
        }
      ],
      "stateMutability": "view",
      "type": "function",
      "constant": true
    },
    {
      "inputs": [],
      "name": "name",
      "outputs": [
        {
          "internalType": "string",
          "name": "",
          "type": "string"
        }
      ],
      "stateMutability": "view",
      "type": "function",
      "constant": true
    },
    {
      "inputs": [],
      "name": "owner",
      "outputs": [
        {
          "internalType": "address",
          "name": "",
          "type": "address"
        }
      ],
      "stateMutability": "view",
      "type": "function",
      "constant": true
    },
    {
      "inputs": [],
      "name": "pendingOwner",
      "outputs": [
        {
          "internalType": "address",
          "name": "",
          "type": "address"
        }
      ],
      "stateMutability": "view",
      "type": "function",
      "constant": true
    },
    {
      "inputs": [],
      "name": "symbol",
      "outputs": [
        {
          "internalType": "string",
          "name": "",
          "type": "string"
        }
      ],
      "stateMutability": "view",
      "type": "function",
      "constant": true
    },
    {
      "inputs": [],
      "name": "totalSupply",
      "outputs": [
        {
          "internalType": "uint256",
          "name": "",
          "type": "uint256"
        }
      ],
      "stateMutability": "view",
      "type": "function",
      "constant": true
    },
    {
      "inputs": [
        {
          "internalType": "address",
          "name": "recipient",
          "type": "address"
        },
        {
          "internalType": "uint256",
          "name": "amount",
          "type": "uint256"
        }
      ],
      "name": "transfer",
      "outputs": [
        {
          "internalType": "bool",
          "name": "",
          "type": "bool"
        }
      ],
      "stateMutability": "nonpayable",
      "type": "function"
    },
    {
      "inputs": [
        {
          "internalType": "address",
          "name": "sender",
          "type": "address"
        },
        {
          "internalType": "address",
          "name": "recipient",
          "type": "address"
        },
        {
          "internalType": "uint256",
          "name": "amount",
          "type": "uint256"
        }
      ],
      "name": "transferFrom",
      "outputs": [
        {
          "internalType": "bool",
          "name": "",
          "type": "bool"
        }
      ],
      "stateMutability": "nonpayable",
      "type": "function"
    },
    {
      "inputs": [
        {
          "internalType": "address",
          "name": "newOwner",
          "type": "address"
        },
        {
          "internalType": "bool",
          "name": "direct",
          "type": "bool"
        },
        {
          "internalType": "bool",
          "name": "renounce",
          "type": "bool"
        }
      ],
      "name": "transferOwnership",
      "outputs": [],
      "stateMutability": "nonpayable",
      "type": "function"
    },
    {
      "inputs": [],
      "name": "weiPerWeek",
      "outputs": [
        {
          "internalType": "uint256",
          "name": "",
          "type": "uint256"
        }
      ],
      "stateMutability": "view",
      "type": "function",
      "constant": true
    },
    {
      "stateMutability": "payable",
      "type": "receive",
      "payable": true
    },
    {
      "inputs": [
        {
          "internalType": "address",
          "name": "_OpenSwap",
          "type": "address"
        }
      ],
      "name": "setOpenSwapToken",
      "outputs": [],
      "stateMutability": "nonpayable",
      "type": "function"
    },
    {
      "inputs": [
        {
          "internalType": "address",
          "name": "_Dev",
          "type": "address"
        }
      ],
      "name": "setDev",
      "outputs": [],
      "stateMutability": "nonpayable",
      "type": "function"
    },
    {
      "inputs": [],
      "name": "payDev",
      "outputs": [],
      "stateMutability": "nonpayable",
      "type": "function"
    },
    {
      "inputs": [],
      "name": "getLastPayment",
      "outputs": [
        {
          "internalType": "uint256",
          "name": "",
          "type": "uint256"
        }
      ],
      "stateMutability": "view",
      "type": "function",
      "constant": true
    }
  ],
  "bytecode": "0x608060405260006008553480156200001657600080fd5b5060408051808201825260118152704f70656e5377617020446576204c6f636b60781b6020808301919091528251808401845260058152646f4c4f434b60d81b91810191909152600080546001600160a01b0319163390811782559351929391927f8be0079c531659141344cd1fd0a4f28419497f9722a3daafe3b4186f6b6457e0908290a38151620000b19060059060208501906200026e565b508051620000c79060069060208401906200026e565b50506007805460ff1916601217905550620000ee306a0be951906eba2aa8000000620000f4565b6200030a565b6001600160a01b03821662000150576040805162461bcd60e51b815260206004820152601f60248201527f45524332303a206d696e7420746f20746865207a65726f206164647265737300604482015290519081900360640190fd5b6200015e6000838362000207565b6200017a816004546200020c60201b62000d8d1790919060201c565b6004556001600160a01b038216600090815260026020908152604090912054620001af91839062000d8d6200020c821b17901c565b6001600160a01b03831660008181526002602090815260408083209490945583518581529351929391927fddf252ad1be2c89b69c2b068fc378daa952ba7f163c4a11628f55a4df523b3ef9281900390910190a35050565b505050565b60008282018381101562000267576040805162461bcd60e51b815260206004820152601b60248201527f536166654d6174683a206164646974696f6e206f766572666c6f770000000000604482015290519081900360640190fd5b9392505050565b828054600181600116156101000203166002900490600052602060002090601f016020900481019282601f10620002b157805160ff1916838001178555620002e1565b82800160010185558215620002e1579182015b82811115620002e1578251825591602001919060010190620002c4565b50620002ef929150620002f3565b5090565b5b80821115620002ef5760008155600101620002f4565b6113d1806200031a6000396000f3fe6080604052600436106101445760003560e01c80637068145c116100b6578063bef3a1d01161006f578063bef3a1d01461048e578063d243ec26146104c1578063d477f05f146104d6578063d7ccc2c314610509578063dd62ed3e1461051e578063e30c3978146105595761014b565b80637068145c146103aa57806370a08231146103bf5780638da5cb5b146103f257806395d89b4114610407578063a457c2d71461041c578063a9059cbb146104555761014b565b806323b872dd1161010857806323b872dd146102c4578063313ce5671461030757806339509351146103325780634e71e0c81461036b57806352844caa14610380578063542debd7146103955761014b565b806301e51ae81461015057806306fdde0314610181578063078dfbe71461020b578063095ea7b31461025057806318160ddd1461029d5761014b565b3661014b57005b600080fd5b34801561015c57600080fd5b5061016561056e565b604080516001600160a01b039092168252519081900360200190f35b34801561018d57600080fd5b5061019661057d565b6040805160208082528351818301528351919283929083019185019080838360005b838110156101d05781810151838201526020016101b8565b50505050905090810190601f1680156101fd5780820380516001836020036101000a031916815260200191505b509250505060405180910390f35b34801561021757600080fd5b5061024e6004803603606081101561022e57600080fd5b506001600160a01b03813516906020810135151590604001351515610613565b005b34801561025c57600080fd5b506102896004803603604081101561027357600080fd5b506001600160a01b03813516906020013561074f565b604080519115158252519081900360200190f35b3480156102a957600080fd5b506102b261076c565b60408051918252519081900360200190f35b3480156102d057600080fd5b50610289600480360360608110156102e757600080fd5b506001600160a01b03813581169160208101359091169060400135610772565b34801561031357600080fd5b5061031c6107f9565b6040805160ff9092168252519081900360200190f35b34801561033e57600080fd5b506102896004803603604081101561035557600080fd5b506001600160a01b038135169060200135610802565b34801561037757600080fd5b5061024e610850565b34801561038c57600080fd5b506102b2610912565b3480156103a157600080fd5b506102b2610918565b3480156103b657600080fd5b50610165610926565b3480156103cb57600080fd5b506102b2600480360360208110156103e257600080fd5b50356001600160a01b0316610935565b3480156103fe57600080fd5b50610165610950565b34801561041357600080fd5b5061019661095f565b34801561042857600080fd5b506102896004803603604081101561043f57600080fd5b506001600160a01b0381351690602001356109c0565b34801561046157600080fd5b506102896004803603604081101561047857600080fd5b506001600160a01b038135169060200135610a28565b34801561049a57600080fd5b5061024e600480360360208110156104b157600080fd5b50356001600160a01b0316610a3c565b3480156104cd57600080fd5b5061024e610abd565b3480156104e257600080fd5b5061024e600480360360208110156104f957600080fd5b50356001600160a01b0316610ccc565b34801561051557600080fd5b506102b2610d4d565b34801561052a57600080fd5b506102b26004803603604081101561054157600080fd5b506001600160a01b0381358116916020013516610d53565b34801561056557600080fd5b50610165610d7e565b600a546001600160a01b031681565b60058054604080516020601f60026000196101006001881615020190951694909404938401819004810282018101909252828152606093909290918301828280156106095780601f106105de57610100808354040283529160200191610609565b820191906000526020600020905b8154815290600101906020018083116105ec57829003601f168201915b5050505050905090565b6000546001600160a01b03163314610672576040805162461bcd60e51b815260206004820181905260248201527f4f776e61626c653a2063616c6c6572206973206e6f7420746865206f776e6572604482015290519081900360640190fd5b811561072e576001600160a01b03831615158061068c5750805b6106d5576040805162461bcd60e51b81526020600482015260156024820152744f776e61626c653a207a65726f206164647265737360581b604482015290519081900360640190fd5b600080546040516001600160a01b03808716939216917f8be0079c531659141344cd1fd0a4f28419497f9722a3daafe3b4186f6b6457e091a3600080546001600160a01b0319166001600160a01b03851617905561074a565b600180546001600160a01b0319166001600160a01b0385161790555b505050565b600061076361075c610dee565b8484610df2565b50600192915050565b60045490565b600061077f848484610ede565b6107ef8461078b610dee565b6107ea856040518060600160405280602881526020016112b9602891396001600160a01b038a166000908152600360205260408120906107c9610dee565b6001600160a01b03168152602081019190915260400160002054919061103b565b610df2565b5060019392505050565b60075460ff1690565b600061076361080f610dee565b846107ea8560036000610820610dee565b6001600160a01b03908116825260208083019390935260409182016000908120918c168152925290205490610d8d565b6001546001600160a01b03163381146108b0576040805162461bcd60e51b815260206004820181905260248201527f4f776e61626c653a2063616c6c657220213d2070656e64696e67206f776e6572604482015290519081900360640190fd5b600080546040516001600160a01b03808516939216917f8be0079c531659141344cd1fd0a4f28419497f9722a3daafe3b4186f6b6457e091a3600080546001600160a01b039092166001600160a01b0319928316179055600180549091169055565b60085481565b690bba67f0ac09ebb0c60081565b6009546001600160a01b031681565b6001600160a01b031660009081526002602052604090205490565b6000546001600160a01b031681565b60068054604080516020601f60026000196101006001881615020190951694909404938401819004810282018101909252828152606093909290918301828280156106095780601f106105de57610100808354040283529160200191610609565b60006107636109cd610dee565b846107ea8560405180606001604052806025815260200161137760259139600360006109f7610dee565b6001600160a01b03908116825260208083019390935260409182016000908120918d1681529252902054919061103b565b6000610763610a35610dee565b8484610ede565b6000546001600160a01b03163314610a9b576040805162461bcd60e51b815260206004820181905260248201527f4f776e61626c653a2063616c6c6572206973206e6f7420746865206f776e6572604482015290519081900360640190fd5b600980546001600160a01b0319166001600160a01b0392909216919091179055565b4260085462093a800110610b025760405162461bcd60e51b815260040180806020018281038252602c81526020018061134b602c913960400191505060405180910390fd5b600954604080516370a0823160e01b815230600482015290516000926001600160a01b0316916370a08231916024808301926020929190829003018186803b158015610b4d57600080fd5b505afa158015610b61573d6000803e3d6000fd5b505050506040513d6020811015610b7757600080fd5b50519050690bba67f0ac09ebb0c600811015610c2257600954600a546040805163a9059cbb60e01b81526001600160a01b039283166004820152602481018590529051919092169163a9059cbb9160448083019260209291908290030181600087803b158015610be657600080fd5b505af1158015610bfa573d6000803e3d6000fd5b505050506040513d6020811015610c1057600080fd5b50610c1d905030826110d2565b610cc5565b600954600a546040805163a9059cbb60e01b81526001600160a01b039283166004820152690bba67f0ac09ebb0c60060248201529051919092169163a9059cbb9160448083019260209291908290030181600087803b158015610c8457600080fd5b505af1158015610c98573d6000803e3d6000fd5b505050506040513d6020811015610cae57600080fd5b50610cc5905030690bba67f0ac09ebb0c6006110d2565b5042600855565b6000546001600160a01b03163314610d2b576040805162461bcd60e51b815260206004820181905260248201527f4f776e61626c653a2063616c6c6572206973206e6f7420746865206f776e6572604482015290519081900360640190fd5b600a80546001600160a01b0319166001600160a01b0392909216919091179055565b60085490565b6001600160a01b03918216600090815260036020908152604080832093909416825291909152205490565b6001546001600160a01b031681565b600082820183811015610de7576040805162461bcd60e51b815260206004820152601b60248201527f536166654d6174683a206164646974696f6e206f766572666c6f770000000000604482015290519081900360640190fd5b9392505050565b3390565b6001600160a01b038316610e375760405162461bcd60e51b81526004018080602001828103825260248152602001806113276024913960400191505060405180910390fd5b6001600160a01b038216610e7c5760405162461bcd60e51b81526004018080602001828103825260228152602001806112716022913960400191505060405180910390fd5b6001600160a01b03808416600081815260036020908152604080832094871680845294825291829020859055815185815291517f8c5be1e5ebec7d5bd14f71427d1e84f3dd0314c0f7b2291e5b200ac8c7c3b9259281900390910190a3505050565b6001600160a01b038316610f235760405162461bcd60e51b81526004018080602001828103825260258152602001806113026025913960400191505060405180910390fd5b6001600160a01b038216610f685760405162461bcd60e51b815260040180806020018281038252602381526020018061122c6023913960400191505060405180910390fd5b610f7383838361074a565b610fb081604051806060016040528060268152602001611293602691396001600160a01b038616600090815260026020526040902054919061103b565b6001600160a01b038085166000908152600260205260408082209390935590841681522054610fdf9082610d8d565b6001600160a01b0380841660008181526002602090815260409182902094909455805185815290519193928716927fddf252ad1be2c89b69c2b068fc378daa952ba7f163c4a11628f55a4df523b3ef92918290030190a3505050565b600081848411156110ca5760405162461bcd60e51b81526004018080602001828103825283818151815260200191508051906020019080838360005b8381101561108f578181015183820152602001611077565b50505050905090810190601f1680156110bc5780820380516001836020036101000a031916815260200191505b509250505060405180910390fd5b505050900390565b6001600160a01b0382166111175760405162461bcd60e51b81526004018080602001828103825260218152602001806112e16021913960400191505060405180910390fd5b6111238260008361074a565b6111608160405180606001604052806022815260200161124f602291396001600160a01b038516600090815260026020526040902054919061103b565b6001600160a01b03831660009081526002602052604090205560045461118690826111ce565b6004556040805182815290516000916001600160a01b038516917fddf252ad1be2c89b69c2b068fc378daa952ba7f163c4a11628f55a4df523b3ef9181900360200190a35050565b600082821115611225576040805162461bcd60e51b815260206004820152601e60248201527f536166654d6174683a207375627472616374696f6e206f766572666c6f770000604482015290519081900360640190fd5b5090039056fe45524332303a207472616e7366657220746f20746865207a65726f206164647265737345524332303a206275726e20616d6f756e7420657863656564732062616c616e636545524332303a20617070726f766520746f20746865207a65726f206164647265737345524332303a207472616e7366657220616d6f756e7420657863656564732062616c616e636545524332303a207472616e7366657220616d6f756e74206578636565647320616c6c6f77616e636545524332303a206275726e2066726f6d20746865207a65726f206164647265737345524332303a207472616e736665722066726f6d20746865207a65726f206164647265737345524332303a20617070726f76652066726f6d20746865207a65726f20616464726573734e6f7420656e6f7567682074696d6520686173207061737365643a205061796d656e74204465636c696e656445524332303a2064656372656173656420616c6c6f77616e63652062656c6f77207a65726fa264697066735822122022510990439b9982e5b6a6f75736946bebb34606d1f21d88d87937411c3ab2b164736f6c634300060c0033",
  "immutableReferences": {},
  "source": "// SPDX-License-Identifier: MIT\n\npragma solidity =0.6.12;\n\nimport \"@openzeppelin/contracts/token/ERC20/ERC20.sol\";\n\n\nimport \"./Ownable.sol\";\n\n\n// SushiToken with Governance.\ncontract TokenLock is Ownable, ERC20(\"OpenSwap Dev Lock\", \"oLOCK\"){\n\n\n\tuint public lastPaymentBlocktime = 0;\n\tERC20 public OpenSwapToken;\n\taddress public Dev;\n\tuint public constant weiPerWeek = 55384615384615000000000;\n\n\tmodifier onlyOnceEveryWeek() { //604800 == 1 week bruh\n\t    require(lastPaymentBlocktime + 604800 < now, \"Not enough time has passed: Payment Declined\");\n\t    _;\n\t}\n\n\treceive() external payable {\n\t     \n\t}\n\n\tconstructor() public {\n\t    _mint(address(this), 14400000000000000000000000);\n\t}\n\n\tfunction setOpenSwapToken(address _OpenSwap) public onlyOwner{\n\t\tOpenSwapToken = ERC20(_OpenSwap);\n\t}\n\n\tfunction setDev(address _Dev) public onlyOwner{\n\t\tDev = _Dev;\n\t}\n\n\tfunction payDev() public onlyOnceEveryWeek{\n\t\tuint contractBalance = OpenSwapToken.balanceOf( address(this)); //get contracts openswap balance\n\n\t\tif(contractBalance < weiPerWeek){ // makes sure last transfer will be able to go through\n\t\t\tOpenSwapToken.transfer(Dev, contractBalance);\n\t\t\t_burn( address(this), contractBalance);\t// burn oLOCK token to match openswap balance\n\t\t}\n\t\telse {\n\t\t\tOpenSwapToken.transfer(Dev, weiPerWeek); //send predefined weekly amount to dev as payement\n\t\t\t_burn( address(this), weiPerWeek); // burn oLOCK token to match openswap balance\n\t\t}\n\t\tlastPaymentBlocktime = now;\n\t}\n\n\tfunction getLastPayment() external view returns(uint){\n\t\treturn lastPaymentBlocktime;\n\t}\n\n\n\n\n}",
  "sourcePath": "/home/alexandre/dev/sushiswap/contracts/openswapLock.sol",
  "compiler": {
    "name": "solc",
    "version": "0.6.12+commit.27d51765.Emscripten.clang"
  },
  "schemaVersion": "3.3.4",
  "updatedAt": "2021-05-08T10:41:47.315Z",
  "networkType": "ethereum",
  "devdoc": {
    "kind": "dev",
    "methods": {
      "allowance(address,address)": {
        "details": "See {IERC20-allowance}."
      },
      "approve(address,uint256)": {
        "details": "See {IERC20-approve}. Requirements: - `spender` cannot be the zero address."
      },
      "balanceOf(address)": {
        "details": "See {IERC20-balanceOf}."
      },
      "decimals()": {
        "details": "Returns the number of decimals used to get its user representation. For example, if `decimals` equals `2`, a balance of `505` tokens should be displayed to a user as `5,05` (`505 / 10 ** 2`). Tokens usually opt for a value of 18, imitating the relationship between Ether and Wei. This is the value {ERC20} uses, unless {_setupDecimals} is called. NOTE: This information is only used for _display_ purposes: it in no way affects any of the arithmetic of the contract, including {IERC20-balanceOf} and {IERC20-transfer}."
      },
      "decreaseAllowance(address,uint256)": {
        "details": "Atomically decreases the allowance granted to `spender` by the caller. This is an alternative to {approve} that can be used as a mitigation for problems described in {IERC20-approve}. Emits an {Approval} event indicating the updated allowance. Requirements: - `spender` cannot be the zero address. - `spender` must have allowance for the caller of at least `subtractedValue`."
      },
      "increaseAllowance(address,uint256)": {
        "details": "Atomically increases the allowance granted to `spender` by the caller. This is an alternative to {approve} that can be used as a mitigation for problems described in {IERC20-approve}. Emits an {Approval} event indicating the updated allowance. Requirements: - `spender` cannot be the zero address."
      },
      "name()": {
        "details": "Returns the name of the token."
      },
      "symbol()": {
        "details": "Returns the symbol of the token, usually a shorter version of the name."
      },
      "totalSupply()": {
        "details": "See {IERC20-totalSupply}."
      },
      "transfer(address,uint256)": {
        "details": "See {IERC20-transfer}. Requirements: - `recipient` cannot be the zero address. - the caller must have a balance of at least `amount`."
      },
      "transferFrom(address,address,uint256)": {
        "details": "See {IERC20-transferFrom}. Emits an {Approval} event indicating the updated allowance. This is not required by the EIP. See the note at the beginning of {ERC20}. Requirements: - `sender` and `recipient` cannot be the zero address. - `sender` must have a balance of at least `amount`. - the caller must have allowance for ``sender``'s tokens of at least `amount`."
      }
    },
    "version": 1
  },
  "userdoc": {
    "kind": "user",
    "methods": {},
    "version": 1
  }
}